{
  "_format": "hh-sol-artifact-1",
  "contractName": "BasicOnChainNft",
  "sourceName": "contracts/BasicOnChainNft.sol",
  "abi": [
    {
      "inputs": [
        {
          "internalType": "string",
          "name": "_name",
          "type": "string"
        },
        {
          "internalType": "string",
          "name": "_symbol",
          "type": "string"
        },
        {
          "internalType": "string",
          "name": "_description",
          "type": "string"
        },
        {
          "internalType": "string",
          "name": "_imageUri",
          "type": "string"
        },
        {
          "internalType": "address",
          "name": "_ownershipVerifierContract",
          "type": "address"
        }
      ],
      "stateMutability": "nonpayable",
      "type": "constructor"
    },
    {
      "inputs": [],
      "name": "BasicNft__TokenUriNotFound",
      "type": "error"
    },
    {
      "inputs": [],
      "name": "BasicOnChainNft__CollectionHasOnlyUniquePieces",
      "type": "error"
    },
    {
      "inputs": [],
      "name": "BasicOnChainNft__InvalidHash",
      "type": "error"
    },
    {
      "inputs": [
        {
          "internalType": "address",
          "name": "sender",
          "type": "address"
        },
        {
          "internalType": "uint256",
          "name": "tokenId",
          "type": "uint256"
        },
        {
          "internalType": "address",
          "name": "owner",
          "type": "address"
        }
      ],
      "name": "ERC721IncorrectOwner",
      "type": "error"
    },
    {
      "inputs": [
        {
          "internalType": "address",
          "name": "operator",
          "type": "address"
        },
        {
          "internalType": "uint256",
          "name": "tokenId",
          "type": "uint256"
        }
      ],
      "name": "ERC721InsufficientApproval",
      "type": "error"
    },
    {
      "inputs": [
        {
          "internalType": "address",
          "name": "approver",
          "type": "address"
        }
      ],
      "name": "ERC721InvalidApprover",
      "type": "error"
    },
    {
      "inputs": [
        {
          "internalType": "address",
          "name": "operator",
          "type": "address"
        }
      ],
      "name": "ERC721InvalidOperator",
      "type": "error"
    },
    {
      "inputs": [
        {
          "internalType": "address",
          "name": "owner",
          "type": "address"
        }
      ],
      "name": "ERC721InvalidOwner",
      "type": "error"
    },
    {
      "inputs": [
        {
          "internalType": "address",
          "name": "receiver",
          "type": "address"
        }
      ],
      "name": "ERC721InvalidReceiver",
      "type": "error"
    },
    {
      "inputs": [
        {
          "internalType": "address",
          "name": "sender",
          "type": "address"
        }
      ],
      "name": "ERC721InvalidSender",
      "type": "error"
    },
    {
      "inputs": [
        {
          "internalType": "uint256",
          "name": "tokenId",
          "type": "uint256"
        }
      ],
      "name": "ERC721NonexistentToken",
      "type": "error"
    },
    {
      "anonymous": false,
      "inputs": [
        {
          "indexed": true,
          "internalType": "address",
          "name": "owner",
          "type": "address"
        },
        {
          "indexed": true,
          "internalType": "address",
          "name": "approved",
          "type": "address"
        },
        {
          "indexed": true,
          "internalType": "uint256",
          "name": "tokenId",
          "type": "uint256"
        }
      ],
      "name": "Approval",
      "type": "event"
    },
    {
      "anonymous": false,
      "inputs": [
        {
          "indexed": true,
          "internalType": "address",
          "name": "owner",
          "type": "address"
        },
        {
          "indexed": true,
          "internalType": "address",
          "name": "operator",
          "type": "address"
        },
        {
          "indexed": false,
          "internalType": "bool",
          "name": "approved",
          "type": "bool"
        }
      ],
      "name": "ApprovalForAll",
      "type": "event"
    },
    {
      "anonymous": false,
      "inputs": [
        {
          "indexed": true,
          "internalType": "address",
          "name": "from",
          "type": "address"
        },
        {
          "indexed": true,
          "internalType": "address",
          "name": "to",
          "type": "address"
        },
        {
          "indexed": true,
          "internalType": "uint256",
          "name": "tokenId",
          "type": "uint256"
        }
      ],
      "name": "Transfer",
      "type": "event"
    },
    {
      "inputs": [
        {
          "internalType": "address",
          "name": "to",
          "type": "address"
        },
        {
          "internalType": "uint256",
          "name": "tokenId",
          "type": "uint256"
        }
      ],
      "name": "approve",
      "outputs": [],
      "stateMutability": "nonpayable",
      "type": "function"
    },
    {
      "inputs": [
        {
          "internalType": "address",
          "name": "owner",
          "type": "address"
        }
      ],
      "name": "balanceOf",
      "outputs": [
        {
          "internalType": "uint256",
          "name": "",
          "type": "uint256"
        }
      ],
      "stateMutability": "view",
      "type": "function"
    },
    {
      "inputs": [
        {
          "internalType": "address",
          "name": "to",
          "type": "address"
        },
        {
          "internalType": "string",
          "name": "answer",
          "type": "string"
        },
        {
          "internalType": "uint256",
          "name": "tokenId",
          "type": "uint256"
        }
      ],
      "name": "claimOwnership",
      "outputs": [],
      "stateMutability": "nonpayable",
      "type": "function"
    },
    {
      "inputs": [
        {
          "internalType": "address",
          "name": "to",
          "type": "address"
        },
        {
          "internalType": "bytes",
          "name": "answerHash",
          "type": "bytes"
        },
        {
          "internalType": "uint256",
          "name": "tokenId",
          "type": "uint256"
        }
      ],
      "name": "claimOwnershipHash",
      "outputs": [],
      "stateMutability": "nonpayable",
      "type": "function"
    },
    {
      "inputs": [
        {
          "internalType": "uint256",
          "name": "tokenId",
          "type": "uint256"
        }
      ],
      "name": "getApproved",
      "outputs": [
        {
          "internalType": "address",
          "name": "",
          "type": "address"
        }
      ],
      "stateMutability": "view",
      "type": "function"
    },
    {
      "inputs": [],
      "name": "getTokenCounter",
      "outputs": [
        {
          "internalType": "uint256",
          "name": "",
          "type": "uint256"
        }
      ],
      "stateMutability": "view",
      "type": "function"
    },
    {
      "inputs": [
        {
          "internalType": "address",
          "name": "owner",
          "type": "address"
        },
        {
          "internalType": "address",
          "name": "operator",
          "type": "address"
        }
      ],
      "name": "isApprovedForAll",
      "outputs": [
        {
          "internalType": "bool",
          "name": "",
          "type": "bool"
        }
      ],
      "stateMutability": "view",
      "type": "function"
    },
    {
      "inputs": [],
      "name": "mintNft",
      "outputs": [],
      "stateMutability": "nonpayable",
      "type": "function"
    },
    {
      "inputs": [
        {
          "internalType": "address",
          "name": "to",
          "type": "address"
        }
      ],
      "name": "mintNftFor",
      "outputs": [],
      "stateMutability": "nonpayable",
      "type": "function"
    },
    {
      "inputs": [],
      "name": "name",
      "outputs": [
        {
          "internalType": "string",
          "name": "",
          "type": "string"
        }
      ],
      "stateMutability": "view",
      "type": "function"
    },
    {
      "inputs": [
        {
          "internalType": "uint256",
          "name": "tokenId",
          "type": "uint256"
        }
      ],
      "name": "ownerOf",
      "outputs": [
        {
          "internalType": "address",
          "name": "",
          "type": "address"
        }
      ],
      "stateMutability": "view",
      "type": "function"
    },
    {
      "inputs": [],
      "name": "ownershipVerifierContract",
      "outputs": [
        {
          "internalType": "contract IVerifier",
          "name": "",
          "type": "address"
        }
      ],
      "stateMutability": "view",
      "type": "function"
    },
    {
      "inputs": [
        {
          "internalType": "address",
          "name": "from",
          "type": "address"
        },
        {
          "internalType": "address",
          "name": "to",
          "type": "address"
        },
        {
          "internalType": "uint256",
          "name": "tokenId",
          "type": "uint256"
        }
      ],
      "name": "safeTransferFrom",
      "outputs": [],
      "stateMutability": "nonpayable",
      "type": "function"
    },
    {
      "inputs": [
        {
          "internalType": "address",
          "name": "from",
          "type": "address"
        },
        {
          "internalType": "address",
          "name": "to",
          "type": "address"
        },
        {
          "internalType": "uint256",
          "name": "tokenId",
          "type": "uint256"
        },
        {
          "internalType": "bytes",
          "name": "data",
          "type": "bytes"
        }
      ],
      "name": "safeTransferFrom",
      "outputs": [],
      "stateMutability": "nonpayable",
      "type": "function"
    },
    {
      "inputs": [
        {
          "internalType": "address",
          "name": "operator",
          "type": "address"
        },
        {
          "internalType": "bool",
          "name": "approved",
          "type": "bool"
        }
      ],
      "name": "setApprovalForAll",
      "outputs": [],
      "stateMutability": "nonpayable",
      "type": "function"
    },
    {
      "inputs": [
        {
          "internalType": "bytes4",
          "name": "interfaceId",
          "type": "bytes4"
        }
      ],
      "name": "supportsInterface",
      "outputs": [
        {
          "internalType": "bool",
          "name": "",
          "type": "bool"
        }
      ],
      "stateMutability": "view",
      "type": "function"
    },
    {
      "inputs": [],
      "name": "symbol",
      "outputs": [
        {
          "internalType": "string",
          "name": "",
          "type": "string"
        }
      ],
      "stateMutability": "view",
      "type": "function"
    },
    {
      "inputs": [
        {
          "internalType": "uint256",
          "name": "tokenId",
          "type": "uint256"
        }
      ],
      "name": "tokenURI",
      "outputs": [
        {
          "internalType": "string",
          "name": "",
          "type": "string"
        }
      ],
      "stateMutability": "view",
      "type": "function"
    },
    {
      "inputs": [
        {
          "internalType": "address",
          "name": "from",
          "type": "address"
        },
        {
          "internalType": "address",
          "name": "to",
          "type": "address"
        },
        {
          "internalType": "uint256",
          "name": "tokenId",
          "type": "uint256"
        }
      ],
      "name": "transferFrom",
      "outputs": [],
      "stateMutability": "nonpayable",
      "type": "function"
    }
  ],
  "bytecode": "0x60806040526040518060200160405280600081525060089081620000249190620003b9565b506040518060400160405280600781526020017f697066733a2f2f00000000000000000000000000000000000000000000000000815250600990816200006b9190620003b9565b503480156200007957600080fd5b50604051620032073803806200320783398181016040528101906200009f919062000669565b84848160009081620000b29190620003b9565b508060019081620000c49190620003b9565b50505060006007819055508160099081620000e09190620003b9565b508260089081620000f29190620003b9565b5080600660006101000a81548173ffffffffffffffffffffffffffffffffffffffff021916908373ffffffffffffffffffffffffffffffffffffffff16021790555050505050506200076d565b600081519050919050565b7f4e487b7100000000000000000000000000000000000000000000000000000000600052604160045260246000fd5b7f4e487b7100000000000000000000000000000000000000000000000000000000600052602260045260246000fd5b60006002820490506001821680620001c157607f821691505b602082108103620001d757620001d662000179565b5b50919050565b60008190508160005260206000209050919050565b60006020601f8301049050919050565b600082821b905092915050565b600060088302620002417fffffffffffffffffffffffffffffffffffffffffffffffffffffffffffffffff8262000202565b6200024d868362000202565b95508019841693508086168417925050509392505050565b6000819050919050565b6000819050919050565b60006200029a620002946200028e8462000265565b6200026f565b62000265565b9050919050565b6000819050919050565b620002b68362000279565b620002ce620002c582620002a1565b8484546200020f565b825550505050565b600090565b620002e5620002d6565b620002f2818484620002ab565b505050565b5b818110156200031a576200030e600082620002db565b600181019050620002f8565b5050565b601f82111562000369576200033381620001dd565b6200033e84620001f2565b810160208510156200034e578190505b620003666200035d85620001f2565b830182620002f7565b50505b505050565b600082821c905092915050565b60006200038e600019846008026200036e565b1980831691505092915050565b6000620003a983836200037b565b9150826002028217905092915050565b620003c4826200013f565b67ffffffffffffffff811115620003e057620003df6200014a565b5b620003ec8254620001a8565b620003f98282856200031e565b600060209050601f8311600181146200043157600084156200041c578287015190505b6200042885826200039b565b86555062000498565b601f1984166200044186620001dd565b60005b828110156200046b5784890151825560018201915060208501945060208101905062000444565b868310156200048b578489015162000487601f8916826200037b565b8355505b6001600288020188555050505b505050505050565b6000604051905090565b600080fd5b600080fd5b600080fd5b600080fd5b6000601f19601f8301169050919050565b620004da82620004be565b810181811067ffffffffffffffff82111715620004fc57620004fb6200014a565b5b80604052505050565b600062000511620004a0565b90506200051f8282620004cf565b919050565b600067ffffffffffffffff8211156200054257620005416200014a565b5b6200054d82620004be565b9050602081019050919050565b60005b838110156200057a5780820151818401526020810190506200055d565b60008484015250505050565b60006200059d620005978462000524565b62000505565b905082815260208101848484011115620005bc57620005bb620004b9565b5b620005c98482856200055a565b509392505050565b600082601f830112620005e957620005e8620004b4565b5b8151620005fb84826020860162000586565b91505092915050565b600073ffffffffffffffffffffffffffffffffffffffff82169050919050565b6000620006318262000604565b9050919050565b620006438162000624565b81146200064f57600080fd5b50565b600081519050620006638162000638565b92915050565b600080600080600060a08688031215620006885762000687620004aa565b5b600086015167ffffffffffffffff811115620006a957620006a8620004af565b5b620006b788828901620005d1565b955050602086015167ffffffffffffffff811115620006db57620006da620004af565b5b620006e988828901620005d1565b945050604086015167ffffffffffffffff8111156200070d576200070c620004af565b5b6200071b88828901620005d1565b935050606086015167ffffffffffffffff8111156200073f576200073e620004af565b5b6200074d88828901620005d1565b9250506080620007608882890162000652565b9150509295509295909350565b612a8a806200077d6000396000f3fe608060405234801561001057600080fd5b50600436106101215760003560e01c806360bf1e95116100ad578063a22cb46511610071578063a22cb46514610306578063b88d4fde14610322578063c2229fea1461033e578063c87b56dd14610348578063e985e9c51461037857610121565b806360bf1e951461024e5780636352211e1461026a5780636e02007d1461029a57806370a08231146102b857806395d89b41146102e857610121565b8063095ea7b3116100f4578063095ea7b3146101c05780631e74be63146101dc57806323b872dd146101fa5780634097aa571461021657806342842e0e1461023257610121565b806301ffc9a71461012657806306fdde0314610156578063081812fc14610174578063091db412146101a4575b600080fd5b610140600480360381019061013b9190611afb565b6103a8565b60405161014d9190611b43565b60405180910390f35b61015e61048a565b60405161016b9190611bee565b60405180910390f35b61018e60048036038101906101899190611c46565b61051c565b60405161019b9190611cb4565b60405180910390f35b6101be60048036038101906101b99190611cfb565b610538565b005b6101da60048036038101906101d59190611d28565b61059b565b005b6101e46105b1565b6040516101f19190611dc7565b60405180910390f35b610214600480360381019061020f9190611de2565b6105d7565b005b610230600480360381019061022b9190611e9a565b6106d9565b005b61024c60048036038101906102479190611de2565b6107c7565b005b61026860048036038101906102639190611f64565b6107e7565b005b610284600480360381019061027f9190611c46565b6108d4565b6040516102919190611cb4565b60405180910390f35b6102a26108e6565b6040516102af9190611fe7565b60405180910390f35b6102d260048036038101906102cd9190611cfb565b6108f0565b6040516102df9190611fe7565b60405180910390f35b6102f06109aa565b6040516102fd9190611bee565b60405180910390f35b610320600480360381019061031b919061202e565b610a3c565b005b61033c6004803603810190610337919061219e565b610a52565b005b610346610a6f565b005b610362600480360381019061035d9190611c46565b610ad1565b60405161036f9190611bee565b60405180910390f35b610392600480360381019061038d9190612221565b610b9c565b60405161039f9190611b43565b60405180910390f35b60007f80ac58cd000000000000000000000000000000000000000000000000000000007bffffffffffffffffffffffffffffffffffffffffffffffffffffffff1916827bffffffffffffffffffffffffffffffffffffffffffffffffffffffff1916148061047357507f5b5e139f000000000000000000000000000000000000000000000000000000007bffffffffffffffffffffffffffffffffffffffffffffffffffffffff1916827bffffffffffffffffffffffffffffffffffffffffffffffffffffffff1916145b80610483575061048282610c30565b5b9050919050565b60606000805461049990612290565b80601f01602080910402602001604051908101604052809291908181526020018280546104c590612290565b80156105125780601f106104e757610100808354040283529160200191610512565b820191906000526020600020905b8154815290600101906020018083116104f557829003601f168201915b5050505050905090565b600061052782610c9a565b5061053182610d22565b9050919050565b600060075414610574576040517f16b67e1b00000000000000000000000000000000000000000000000000000000815260040160405180910390fd5b61058081600754610d5f565b60076000815480929190610593906122f0565b919050555050565b6105ad82826105a8610d7d565b610d85565b5050565b600660009054906101000a900473ffffffffffffffffffffffffffffffffffffffff1681565b600073ffffffffffffffffffffffffffffffffffffffff168273ffffffffffffffffffffffffffffffffffffffff16036106495760006040517f64a0ae920000000000000000000000000000000000000000000000000000000081526004016106409190611cb4565b60405180910390fd5b600061065d8383610658610d7d565b610d97565b90508373ffffffffffffffffffffffffffffffffffffffff168173ffffffffffffffffffffffffffffffffffffffff16146106d3578382826040517f64283d7b0000000000000000000000000000000000000000000000000000000081526004016106ca93929190612338565b60405180910390fd5b50505050565b600660009054906101000a900473ffffffffffffffffffffffffffffffffffffffff1673ffffffffffffffffffffffffffffffffffffffff1663a2d5df5984846040518363ffffffff1660e01b81526004016107369291906123ad565b602060405180830381865afa158015610753573d6000803e3d6000fd5b505050506040513d601f19601f8201168201806040525081019061077791906123e6565b156107ae576040517f61da49d300000000000000000000000000000000000000000000000000000000815260040160405180910390fd5b6107c16107ba82610fb1565b8583610fee565b50505050565b6107e283838360405180602001604052806000815250610a52565b505050565b600660009054906101000a900473ffffffffffffffffffffffffffffffffffffffff1673ffffffffffffffffffffffffffffffffffffffff166360ea95f184846040518363ffffffff1660e01b8152600401610844929190612440565b602060405180830381865afa158015610861573d6000803e3d6000fd5b505050506040513d601f19601f8201168201806040525081019061088591906123e6565b6108bb576040517f61da49d300000000000000000000000000000000000000000000000000000000815260040160405180910390fd5b6108ce6108c782610fb1565b8583610fee565b50505050565b60006108df82610c9a565b9050919050565b6000600754905090565b60008073ffffffffffffffffffffffffffffffffffffffff168273ffffffffffffffffffffffffffffffffffffffff16036109635760006040517f89c62b6400000000000000000000000000000000000000000000000000000000815260040161095a9190611cb4565b60405180910390fd5b600360008373ffffffffffffffffffffffffffffffffffffffff1673ffffffffffffffffffffffffffffffffffffffff168152602001908152602001600020549050919050565b6060600180546109b990612290565b80601f01602080910402602001604051908101604052809291908181526020018280546109e590612290565b8015610a325780601f10610a0757610100808354040283529160200191610a32565b820191906000526020600020905b815481529060010190602001808311610a1557829003601f168201915b5050505050905090565b610a4e610a47610d7d565b838361100e565b5050565b610a5d8484846105d7565b610a698484848461117d565b50505050565b600060075414610aab576040517f16b67e1b00000000000000000000000000000000000000000000000000000000815260040160405180910390fd5b610ab733600754610d5f565b60076000815480929190610aca906122f0565b9190505550565b6060600073ffffffffffffffffffffffffffffffffffffffff16610af4836108d4565b73ffffffffffffffffffffffffffffffffffffffff1603610b41576040517f7598996f00000000000000000000000000000000000000000000000000000000815260040160405180910390fd5b610b76610b4c61048a565b60086009604051602001610b629392919061274c565b604051602081830303815290604052611334565b604051602001610b869190612821565b6040516020818303038152906040529050919050565b6000600560008473ffffffffffffffffffffffffffffffffffffffff1673ffffffffffffffffffffffffffffffffffffffff16815260200190815260200160002060008373ffffffffffffffffffffffffffffffffffffffff1673ffffffffffffffffffffffffffffffffffffffff16815260200190815260200160002060009054906101000a900460ff16905092915050565b60007f01ffc9a7000000000000000000000000000000000000000000000000000000007bffffffffffffffffffffffffffffffffffffffffffffffffffffffff1916827bffffffffffffffffffffffffffffffffffffffffffffffffffffffff1916149050919050565b600080610ca683610fb1565b9050600073ffffffffffffffffffffffffffffffffffffffff168173ffffffffffffffffffffffffffffffffffffffff1603610d1957826040517f7e273289000000000000000000000000000000000000000000000000000000008152600401610d109190611fe7565b60405180910390fd5b80915050919050565b60006004600083815260200190815260200160002060009054906101000a900473ffffffffffffffffffffffffffffffffffffffff169050919050565b610d798282604051806020016040528060008152506114a6565b5050565b600033905090565b610d9283838360016114c2565b505050565b600080610da384610fb1565b9050600073ffffffffffffffffffffffffffffffffffffffff168373ffffffffffffffffffffffffffffffffffffffff1614610de557610de4818486611687565b5b600073ffffffffffffffffffffffffffffffffffffffff168173ffffffffffffffffffffffffffffffffffffffff1614610e7657610e276000856000806114c2565b6001600360008373ffffffffffffffffffffffffffffffffffffffff1673ffffffffffffffffffffffffffffffffffffffff168152602001908152602001600020600082825403925050819055505b600073ffffffffffffffffffffffffffffffffffffffff168573ffffffffffffffffffffffffffffffffffffffff1614610ef9576001600360008773ffffffffffffffffffffffffffffffffffffffff1673ffffffffffffffffffffffffffffffffffffffff168152602001908152602001600020600082825401925050819055505b846002600086815260200190815260200160002060006101000a81548173ffffffffffffffffffffffffffffffffffffffff021916908373ffffffffffffffffffffffffffffffffffffffff160217905550838573ffffffffffffffffffffffffffffffffffffffff168273ffffffffffffffffffffffffffffffffffffffff167fddf252ad1be2c89b69c2b068fc378daa952ba7f163c4a11628f55a4df523b3ef60405160405180910390a4809150509392505050565b60006002600083815260200190815260200160002060009054906101000a900473ffffffffffffffffffffffffffffffffffffffff169050919050565b6110098383836040518060200160405280600081525061174b565b505050565b600073ffffffffffffffffffffffffffffffffffffffff168273ffffffffffffffffffffffffffffffffffffffff160361107f57816040517f5b08ba180000000000000000000000000000000000000000000000000000000081526004016110769190611cb4565b60405180910390fd5b80600560008573ffffffffffffffffffffffffffffffffffffffff1673ffffffffffffffffffffffffffffffffffffffff16815260200190815260200160002060008473ffffffffffffffffffffffffffffffffffffffff1673ffffffffffffffffffffffffffffffffffffffff16815260200190815260200160002060006101000a81548160ff0219169083151502179055508173ffffffffffffffffffffffffffffffffffffffff168373ffffffffffffffffffffffffffffffffffffffff167f17307eab39ab6107e8899845ad3d59bd9653f200f220920489ca2b5937696c31836040516111709190611b43565b60405180910390a3505050565b60008373ffffffffffffffffffffffffffffffffffffffff163b111561132e578273ffffffffffffffffffffffffffffffffffffffff1663150b7a026111c1610d7d565b8685856040518563ffffffff1660e01b81526004016111e39493929190612887565b6020604051808303816000875af192505050801561121f57506040513d601f19601f8201168201806040525081019061121c91906128e8565b60015b6112a3573d806000811461124f576040519150601f19603f3d011682016040523d82523d6000602084013e611254565b606091505b50600081510361129b57836040517f64a0ae920000000000000000000000000000000000000000000000000000000081526004016112929190611cb4565b60405180910390fd5b805181602001fd5b63150b7a0260e01b7bffffffffffffffffffffffffffffffffffffffffffffffffffffffff1916817bffffffffffffffffffffffffffffffffffffffffffffffffffffffff19161461132c57836040517f64a0ae920000000000000000000000000000000000000000000000000000000081526004016113239190611cb4565b60405180910390fd5b505b50505050565b60606000825103611356576040518060200160405280600081525090506114a1565b6000604051806060016040528060408152602001612a1560409139905060006003600285516113859190612915565b61138f9190612978565b600461139b91906129a9565b67ffffffffffffffff8111156113b4576113b3612073565b5b6040519080825280601f01601f1916602001820160405280156113e65781602001600182028036833780820191505090505b50905060018201602082018586518701602081018051600082525b8284101561145c576003840193508351603f8160121c168701518653600186019550603f81600c1c168701518653600186019550603f8160061c168701518653600186019550603f8116870151865360018601955050611401565b80825260038a510660018114611479576002811461148c57611494565b603d6001870353603d6002870353611494565b603d60018703535b5050505050505080925050505b919050565b6114b08383611768565b6114bd600084848461117d565b505050565b80806114fb5750600073ffffffffffffffffffffffffffffffffffffffff168273ffffffffffffffffffffffffffffffffffffffff1614155b1561162f57600061150b84610c9a565b9050600073ffffffffffffffffffffffffffffffffffffffff168373ffffffffffffffffffffffffffffffffffffffff161415801561157657508273ffffffffffffffffffffffffffffffffffffffff168173ffffffffffffffffffffffffffffffffffffffff1614155b801561158957506115878184610b9c565b155b156115cb57826040517fa9fbf51f0000000000000000000000000000000000000000000000000000000081526004016115c29190611cb4565b60405180910390fd5b811561162d57838573ffffffffffffffffffffffffffffffffffffffff168273ffffffffffffffffffffffffffffffffffffffff167f8c5be1e5ebec7d5bd14f71427d1e84f3dd0314c0f7b2291e5b200ac8c7c3b92560405160405180910390a45b505b836004600085815260200190815260200160002060006101000a81548173ffffffffffffffffffffffffffffffffffffffff021916908373ffffffffffffffffffffffffffffffffffffffff16021790555050505050565b611692838383611861565b61174657600073ffffffffffffffffffffffffffffffffffffffff168373ffffffffffffffffffffffffffffffffffffffff160361170757806040517f7e2732890000000000000000000000000000000000000000000000000000000081526004016116fe9190611fe7565b60405180910390fd5b81816040517f177e802f00000000000000000000000000000000000000000000000000000000815260040161173d9291906129eb565b60405180910390fd5b505050565b611756848484611922565b6117628484848461117d565b50505050565b600073ffffffffffffffffffffffffffffffffffffffff168273ffffffffffffffffffffffffffffffffffffffff16036117da5760006040517f64a0ae920000000000000000000000000000000000000000000000000000000081526004016117d19190611cb4565b60405180910390fd5b60006117e883836000610d97565b9050600073ffffffffffffffffffffffffffffffffffffffff168173ffffffffffffffffffffffffffffffffffffffff161461185c5760006040517f73c6ac6e0000000000000000000000000000000000000000000000000000000081526004016118539190611cb4565b60405180910390fd5b505050565b60008073ffffffffffffffffffffffffffffffffffffffff168373ffffffffffffffffffffffffffffffffffffffff161415801561191957508273ffffffffffffffffffffffffffffffffffffffff168473ffffffffffffffffffffffffffffffffffffffff1614806118da57506118d98484610b9c565b5b8061191857508273ffffffffffffffffffffffffffffffffffffffff1661190083610d22565b73ffffffffffffffffffffffffffffffffffffffff16145b5b90509392505050565b600073ffffffffffffffffffffffffffffffffffffffff168273ffffffffffffffffffffffffffffffffffffffff16036119945760006040517f64a0ae9200000000000000000000000000000000000000000000000000000000815260040161198b9190611cb4565b60405180910390fd5b60006119a283836000610d97565b9050600073ffffffffffffffffffffffffffffffffffffffff168173ffffffffffffffffffffffffffffffffffffffff1603611a1557816040517f7e273289000000000000000000000000000000000000000000000000000000008152600401611a0c9190611fe7565b60405180910390fd5b8373ffffffffffffffffffffffffffffffffffffffff168173ffffffffffffffffffffffffffffffffffffffff1614611a89578382826040517f64283d7b000000000000000000000000000000000000000000000000000000008152600401611a8093929190612338565b60405180910390fd5b50505050565b6000604051905090565b600080fd5b600080fd5b60007fffffffff0000000000000000000000000000000000000000000000000000000082169050919050565b611ad881611aa3565b8114611ae357600080fd5b50565b600081359050611af581611acf565b92915050565b600060208284031215611b1157611b10611a99565b5b6000611b1f84828501611ae6565b91505092915050565b60008115159050919050565b611b3d81611b28565b82525050565b6000602082019050611b586000830184611b34565b92915050565b600081519050919050565b600082825260208201905092915050565b60005b83811015611b98578082015181840152602081019050611b7d565b60008484015250505050565b6000601f19601f8301169050919050565b6000611bc082611b5e565b611bca8185611b69565b9350611bda818560208601611b7a565b611be381611ba4565b840191505092915050565b60006020820190508181036000830152611c088184611bb5565b905092915050565b6000819050919050565b611c2381611c10565b8114611c2e57600080fd5b50565b600081359050611c4081611c1a565b92915050565b600060208284031215611c5c57611c5b611a99565b5b6000611c6a84828501611c31565b91505092915050565b600073ffffffffffffffffffffffffffffffffffffffff82169050919050565b6000611c9e82611c73565b9050919050565b611cae81611c93565b82525050565b6000602082019050611cc96000830184611ca5565b92915050565b611cd881611c93565b8114611ce357600080fd5b50565b600081359050611cf581611ccf565b92915050565b600060208284031215611d1157611d10611a99565b5b6000611d1f84828501611ce6565b91505092915050565b60008060408385031215611d3f57611d3e611a99565b5b6000611d4d85828601611ce6565b9250506020611d5e85828601611c31565b9150509250929050565b6000819050919050565b6000611d8d611d88611d8384611c73565b611d68565b611c73565b9050919050565b6000611d9f82611d72565b9050919050565b6000611db182611d94565b9050919050565b611dc181611da6565b82525050565b6000602082019050611ddc6000830184611db8565b92915050565b600080600060608486031215611dfb57611dfa611a99565b5b6000611e0986828701611ce6565b9350506020611e1a86828701611ce6565b9250506040611e2b86828701611c31565b9150509250925092565b600080fd5b600080fd5b600080fd5b60008083601f840112611e5a57611e59611e35565b5b8235905067ffffffffffffffff811115611e7757611e76611e3a565b5b602083019150836001820283011115611e9357611e92611e3f565b5b9250929050565b60008060008060608587031215611eb457611eb3611a99565b5b6000611ec287828801611ce6565b945050602085013567ffffffffffffffff811115611ee357611ee2611a9e565b5b611eef87828801611e44565b93509350506040611f0287828801611c31565b91505092959194509250565b60008083601f840112611f2457611f23611e35565b5b8235905067ffffffffffffffff811115611f4157611f40611e3a565b5b602083019150836001820283011115611f5d57611f5c611e3f565b5b9250929050565b60008060008060608587031215611f7e57611f7d611a99565b5b6000611f8c87828801611ce6565b945050602085013567ffffffffffffffff811115611fad57611fac611a9e565b5b611fb987828801611f0e565b93509350506040611fcc87828801611c31565b91505092959194509250565b611fe181611c10565b82525050565b6000602082019050611ffc6000830184611fd8565b92915050565b61200b81611b28565b811461201657600080fd5b50565b60008135905061202881612002565b92915050565b6000806040838503121561204557612044611a99565b5b600061205385828601611ce6565b925050602061206485828601612019565b9150509250929050565b600080fd5b7f4e487b7100000000000000000000000000000000000000000000000000000000600052604160045260246000fd5b6120ab82611ba4565b810181811067ffffffffffffffff821117156120ca576120c9612073565b5b80604052505050565b60006120dd611a8f565b90506120e982826120a2565b919050565b600067ffffffffffffffff82111561210957612108612073565b5b61211282611ba4565b9050602081019050919050565b82818337600083830152505050565b600061214161213c846120ee565b6120d3565b90508281526020810184848401111561215d5761215c61206e565b5b61216884828561211f565b509392505050565b600082601f83011261218557612184611e35565b5b813561219584826020860161212e565b91505092915050565b600080600080608085870312156121b8576121b7611a99565b5b60006121c687828801611ce6565b94505060206121d787828801611ce6565b93505060406121e887828801611c31565b925050606085013567ffffffffffffffff81111561220957612208611a9e565b5b61221587828801612170565b91505092959194509250565b6000806040838503121561223857612237611a99565b5b600061224685828601611ce6565b925050602061225785828601611ce6565b9150509250929050565b7f4e487b7100000000000000000000000000000000000000000000000000000000600052602260045260246000fd5b600060028204905060018216806122a857607f821691505b6020821081036122bb576122ba612261565b5b50919050565b7f4e487b7100000000000000000000000000000000000000000000000000000000600052601160045260246000fd5b60006122fb82611c10565b91507fffffffffffffffffffffffffffffffffffffffffffffffffffffffffffffffff820361232d5761232c6122c1565b5b600182019050919050565b600060608201905061234d6000830186611ca5565b61235a6020830185611fd8565b6123676040830184611ca5565b949350505050565b600082825260208201905092915050565b600061238c838561236f565b935061239983858461211f565b6123a283611ba4565b840190509392505050565b600060208201905081810360008301526123c8818486612380565b90509392505050565b6000815190506123e081612002565b92915050565b6000602082840312156123fc576123fb611a99565b5b600061240a848285016123d1565b91505092915050565b600061241f8385611b69565b935061242c83858461211f565b61243583611ba4565b840190509392505050565b6000602082019050818103600083015261245b818486612413565b90509392505050565b600081905092915050565b7f7b00000000000000000000000000000000000000000000000000000000000000600082015250565b60006124a5600183612464565b91506124b08261246f565b600182019050919050565b7f226e616d65223a20220000000000000000000000000000000000000000000000600082015250565b60006124f1600983612464565b91506124fc826124bb565b600982019050919050565b600061251282611b5e565b61251c8185612464565b935061252c818560208601611b7a565b80840191505092915050565b7f222c000000000000000000000000000000000000000000000000000000000000600082015250565b600061256e600283612464565b915061257982612538565b600282019050919050565b7f226465736372697074696f6e223a202200000000000000000000000000000000600082015250565b60006125ba601083612464565b91506125c582612584565b601082019050919050565b60008190508160005260206000209050919050565b600081546125f281612290565b6125fc8186612464565b94506001821660008114612617576001811461262c5761265f565b60ff198316865281151582028601935061265f565b612635856125d0565b60005b8381101561265757815481890152600182019150602081019050612638565b838801955050505b50505092915050565b7f2261747472696275746573223a205b5d2c000000000000000000000000000000600082015250565b600061269e601183612464565b91506126a982612668565b601182019050919050565b7f22696d616765223a202200000000000000000000000000000000000000000000600082015250565b60006126ea600a83612464565b91506126f5826126b4565b600a82019050919050565b7f227d000000000000000000000000000000000000000000000000000000000000600082015250565b6000612736600283612464565b915061274182612700565b600282019050919050565b600061275782612498565b9150612762826124e4565b915061276e8286612507565b915061277982612561565b9150612784826125ad565b915061279082856125e5565b915061279b82612561565b91506127a682612691565b91506127b1826126dd565b91506127bd82846125e5565b91506127c882612729565b9150819050949350505050565b7f646174613a6170706c69636174696f6e2f6a736f6e3b6261736536342c000000600082015250565b600061280b601d83612464565b9150612816826127d5565b601d82019050919050565b600061282c826127fe565b91506128388284612507565b915081905092915050565b600081519050919050565b600061285982612843565b612863818561236f565b9350612873818560208601611b7a565b61287c81611ba4565b840191505092915050565b600060808201905061289c6000830187611ca5565b6128a96020830186611ca5565b6128b66040830185611fd8565b81810360608301526128c8818461284e565b905095945050505050565b6000815190506128e281611acf565b92915050565b6000602082840312156128fe576128fd611a99565b5b600061290c848285016128d3565b91505092915050565b600061292082611c10565b915061292b83611c10565b9250828201905080821115612943576129426122c1565b5b92915050565b7f4e487b7100000000000000000000000000000000000000000000000000000000600052601260045260246000fd5b600061298382611c10565b915061298e83611c10565b92508261299e5761299d612949565b5b828204905092915050565b60006129b482611c10565b91506129bf83611c10565b92508282026129cd81611c10565b915082820484148315176129e4576129e36122c1565b5b5092915050565b6000604082019050612a006000830185611ca5565b612a0d6020830184611fd8565b939250505056fe4142434445464748494a4b4c4d4e4f505152535455565758595a6162636465666768696a6b6c6d6e6f707172737475767778797a303132333435363738392b2fa26469706673582212202850906fb9c7821214aac71d3f87a70dc563272e0699e815a567ae0006e9c89b64736f6c63430008180033",
  "linkReferences": {},
  "deployedLinkReferences": {}
}