{
  "_format": "hh-sol-artifact-1",
  "contractName": "BasicNft",
  "sourceName": "contracts/BasicNft.sol",
  "abi": [
    {
      "inputs": [
        {
          "internalType": "string",
          "name": "_name",
          "type": "string"
        },
        {
          "internalType": "string",
          "name": "_symbol",
          "type": "string"
        }
      ],
      "stateMutability": "nonpayable",
      "type": "constructor"
    },
    {
      "inputs": [
        {
          "internalType": "address",
          "name": "sender",
          "type": "address"
        },
        {
          "internalType": "uint256",
          "name": "tokenId",
          "type": "uint256"
        },
        {
          "internalType": "address",
          "name": "owner",
          "type": "address"
        }
      ],
      "name": "ERC721IncorrectOwner",
      "type": "error"
    },
    {
      "inputs": [
        {
          "internalType": "address",
          "name": "operator",
          "type": "address"
        },
        {
          "internalType": "uint256",
          "name": "tokenId",
          "type": "uint256"
        }
      ],
      "name": "ERC721InsufficientApproval",
      "type": "error"
    },
    {
      "inputs": [
        {
          "internalType": "address",
          "name": "approver",
          "type": "address"
        }
      ],
      "name": "ERC721InvalidApprover",
      "type": "error"
    },
    {
      "inputs": [
        {
          "internalType": "address",
          "name": "operator",
          "type": "address"
        }
      ],
      "name": "ERC721InvalidOperator",
      "type": "error"
    },
    {
      "inputs": [
        {
          "internalType": "address",
          "name": "owner",
          "type": "address"
        }
      ],
      "name": "ERC721InvalidOwner",
      "type": "error"
    },
    {
      "inputs": [
        {
          "internalType": "address",
          "name": "receiver",
          "type": "address"
        }
      ],
      "name": "ERC721InvalidReceiver",
      "type": "error"
    },
    {
      "inputs": [
        {
          "internalType": "address",
          "name": "sender",
          "type": "address"
        }
      ],
      "name": "ERC721InvalidSender",
      "type": "error"
    },
    {
      "inputs": [
        {
          "internalType": "uint256",
          "name": "tokenId",
          "type": "uint256"
        }
      ],
      "name": "ERC721NonexistentToken",
      "type": "error"
    },
    {
      "anonymous": false,
      "inputs": [
        {
          "indexed": true,
          "internalType": "address",
          "name": "owner",
          "type": "address"
        },
        {
          "indexed": true,
          "internalType": "address",
          "name": "approved",
          "type": "address"
        },
        {
          "indexed": true,
          "internalType": "uint256",
          "name": "tokenId",
          "type": "uint256"
        }
      ],
      "name": "Approval",
      "type": "event"
    },
    {
      "anonymous": false,
      "inputs": [
        {
          "indexed": true,
          "internalType": "address",
          "name": "owner",
          "type": "address"
        },
        {
          "indexed": true,
          "internalType": "address",
          "name": "operator",
          "type": "address"
        },
        {
          "indexed": false,
          "internalType": "bool",
          "name": "approved",
          "type": "bool"
        }
      ],
      "name": "ApprovalForAll",
      "type": "event"
    },
    {
      "anonymous": false,
      "inputs": [
        {
          "indexed": true,
          "internalType": "address",
          "name": "from",
          "type": "address"
        },
        {
          "indexed": true,
          "internalType": "address",
          "name": "to",
          "type": "address"
        },
        {
          "indexed": true,
          "internalType": "uint256",
          "name": "tokenId",
          "type": "uint256"
        }
      ],
      "name": "Transfer",
      "type": "event"
    },
    {
      "inputs": [
        {
          "internalType": "address",
          "name": "to",
          "type": "address"
        },
        {
          "internalType": "uint256",
          "name": "tokenId",
          "type": "uint256"
        }
      ],
      "name": "approve",
      "outputs": [],
      "stateMutability": "nonpayable",
      "type": "function"
    },
    {
      "inputs": [
        {
          "internalType": "address",
          "name": "owner",
          "type": "address"
        }
      ],
      "name": "balanceOf",
      "outputs": [
        {
          "internalType": "uint256",
          "name": "",
          "type": "uint256"
        }
      ],
      "stateMutability": "view",
      "type": "function"
    },
    {
      "inputs": [
        {
          "internalType": "uint256",
          "name": "tokenId",
          "type": "uint256"
        }
      ],
      "name": "getApproved",
      "outputs": [
        {
          "internalType": "address",
          "name": "",
          "type": "address"
        }
      ],
      "stateMutability": "view",
      "type": "function"
    },
    {
      "inputs": [],
      "name": "getTokenCounter",
      "outputs": [
        {
          "internalType": "uint256",
          "name": "",
          "type": "uint256"
        }
      ],
      "stateMutability": "view",
      "type": "function"
    },
    {
      "inputs": [
        {
          "internalType": "address",
          "name": "owner",
          "type": "address"
        },
        {
          "internalType": "address",
          "name": "operator",
          "type": "address"
        }
      ],
      "name": "isApprovedForAll",
      "outputs": [
        {
          "internalType": "bool",
          "name": "",
          "type": "bool"
        }
      ],
      "stateMutability": "view",
      "type": "function"
    },
    {
      "inputs": [
        {
          "internalType": "string",
          "name": "tokenUri",
          "type": "string"
        }
      ],
      "name": "mintNft",
      "outputs": [],
      "stateMutability": "nonpayable",
      "type": "function"
    },
    {
      "inputs": [],
      "name": "name",
      "outputs": [
        {
          "internalType": "string",
          "name": "",
          "type": "string"
        }
      ],
      "stateMutability": "view",
      "type": "function"
    },
    {
      "inputs": [
        {
          "internalType": "uint256",
          "name": "tokenId",
          "type": "uint256"
        }
      ],
      "name": "ownerOf",
      "outputs": [
        {
          "internalType": "address",
          "name": "",
          "type": "address"
        }
      ],
      "stateMutability": "view",
      "type": "function"
    },
    {
      "inputs": [
        {
          "internalType": "address",
          "name": "from",
          "type": "address"
        },
        {
          "internalType": "address",
          "name": "to",
          "type": "address"
        },
        {
          "internalType": "uint256",
          "name": "tokenId",
          "type": "uint256"
        }
      ],
      "name": "safeTransferFrom",
      "outputs": [],
      "stateMutability": "nonpayable",
      "type": "function"
    },
    {
      "inputs": [
        {
          "internalType": "address",
          "name": "from",
          "type": "address"
        },
        {
          "internalType": "address",
          "name": "to",
          "type": "address"
        },
        {
          "internalType": "uint256",
          "name": "tokenId",
          "type": "uint256"
        },
        {
          "internalType": "bytes",
          "name": "data",
          "type": "bytes"
        }
      ],
      "name": "safeTransferFrom",
      "outputs": [],
      "stateMutability": "nonpayable",
      "type": "function"
    },
    {
      "inputs": [
        {
          "internalType": "address",
          "name": "operator",
          "type": "address"
        },
        {
          "internalType": "bool",
          "name": "approved",
          "type": "bool"
        }
      ],
      "name": "setApprovalForAll",
      "outputs": [],
      "stateMutability": "nonpayable",
      "type": "function"
    },
    {
      "inputs": [
        {
          "internalType": "bytes4",
          "name": "interfaceId",
          "type": "bytes4"
        }
      ],
      "name": "supportsInterface",
      "outputs": [
        {
          "internalType": "bool",
          "name": "",
          "type": "bool"
        }
      ],
      "stateMutability": "view",
      "type": "function"
    },
    {
      "inputs": [],
      "name": "symbol",
      "outputs": [
        {
          "internalType": "string",
          "name": "",
          "type": "string"
        }
      ],
      "stateMutability": "view",
      "type": "function"
    },
    {
      "inputs": [
        {
          "internalType": "uint256",
          "name": "tokenId",
          "type": "uint256"
        }
      ],
      "name": "tokenURI",
      "outputs": [
        {
          "internalType": "string",
          "name": "",
          "type": "string"
        }
      ],
      "stateMutability": "view",
      "type": "function"
    },
    {
      "inputs": [
        {
          "internalType": "address",
          "name": "from",
          "type": "address"
        },
        {
          "internalType": "address",
          "name": "to",
          "type": "address"
        },
        {
          "internalType": "uint256",
          "name": "tokenId",
          "type": "uint256"
        }
      ],
      "name": "transferFrom",
      "outputs": [],
      "stateMutability": "nonpayable",
      "type": "function"
    }
  ],
  "bytecode": "0x60806040523480156200001157600080fd5b506040516200258038038062002580833981810160405281019062000037919062000202565b818181600090816200004a9190620004d2565b5080600190816200005c9190620004d2565b50505060006007819055505050620005b9565b6000604051905090565b600080fd5b600080fd5b600080fd5b600080fd5b6000601f19601f8301169050919050565b7f4e487b7100000000000000000000000000000000000000000000000000000000600052604160045260246000fd5b620000d8826200008d565b810181811067ffffffffffffffff82111715620000fa57620000f96200009e565b5b80604052505050565b60006200010f6200006f565b90506200011d8282620000cd565b919050565b600067ffffffffffffffff82111562000140576200013f6200009e565b5b6200014b826200008d565b9050602081019050919050565b60005b83811015620001785780820151818401526020810190506200015b565b60008484015250505050565b60006200019b620001958462000122565b62000103565b905082815260208101848484011115620001ba57620001b962000088565b5b620001c784828562000158565b509392505050565b600082601f830112620001e757620001e662000083565b5b8151620001f984826020860162000184565b91505092915050565b600080604083850312156200021c576200021b62000079565b5b600083015167ffffffffffffffff8111156200023d576200023c6200007e565b5b6200024b85828601620001cf565b925050602083015167ffffffffffffffff8111156200026f576200026e6200007e565b5b6200027d85828601620001cf565b9150509250929050565b600081519050919050565b7f4e487b7100000000000000000000000000000000000000000000000000000000600052602260045260246000fd5b60006002820490506001821680620002da57607f821691505b602082108103620002f057620002ef62000292565b5b50919050565b60008190508160005260206000209050919050565b60006020601f8301049050919050565b600082821b905092915050565b6000600883026200035a7fffffffffffffffffffffffffffffffffffffffffffffffffffffffffffffffff826200031b565b6200036686836200031b565b95508019841693508086168417925050509392505050565b6000819050919050565b6000819050919050565b6000620003b3620003ad620003a7846200037e565b62000388565b6200037e565b9050919050565b6000819050919050565b620003cf8362000392565b620003e7620003de82620003ba565b84845462000328565b825550505050565b600090565b620003fe620003ef565b6200040b818484620003c4565b505050565b5b81811015620004335762000427600082620003f4565b60018101905062000411565b5050565b601f82111562000482576200044c81620002f6565b62000457846200030b565b8101602085101562000467578190505b6200047f62000476856200030b565b83018262000410565b50505b505050565b600082821c905092915050565b6000620004a76000198460080262000487565b1980831691505092915050565b6000620004c2838362000494565b9150826002028217905092915050565b620004dd8262000287565b67ffffffffffffffff811115620004f957620004f86200009e565b5b620005058254620002c1565b6200051282828562000437565b600060209050601f8311600181146200054a576000841562000535578287015190505b620005418582620004b4565b865550620005b1565b601f1984166200055a86620002f6565b60005b8281101562000584578489015182556001820191506020850194506020810190506200055d565b86831015620005a45784890151620005a0601f89168262000494565b8355505b6001600288020188555050505b505050505050565b611fb780620005c96000396000f3fe608060405234801561001057600080fd5b50600436106100f55760003560e01c80636e02007d11610097578063b88d4fde11610066578063b88d4fde14610284578063c87b56dd146102a0578063da86f4a9146102d0578063e985e9c5146102ec576100f5565b80636e02007d146101fc57806370a082311461021a57806395d89b411461024a578063a22cb46514610268576100f5565b8063095ea7b3116100d3578063095ea7b31461017857806323b872dd1461019457806342842e0e146101b05780636352211e146101cc576100f5565b806301ffc9a7146100fa57806306fdde031461012a578063081812fc14610148575b600080fd5b610114600480360381019061010f91906114b1565b61031c565b60405161012191906114f9565b60405180910390f35b6101326103fe565b60405161013f91906115a4565b60405180910390f35b610162600480360381019061015d91906115fc565b610490565b60405161016f919061166a565b60405180910390f35b610192600480360381019061018d91906116b1565b6104ac565b005b6101ae60048036038101906101a991906116f1565b6104c2565b005b6101ca60048036038101906101c591906116f1565b6105c4565b005b6101e660048036038101906101e191906115fc565b6105e4565b6040516101f3919061166a565b60405180910390f35b6102046105f6565b6040516102119190611753565b60405180910390f35b610234600480360381019061022f919061176e565b610600565b6040516102419190611753565b60405180910390f35b6102526106ba565b60405161025f91906115a4565b60405180910390f35b610282600480360381019061027d91906117c7565b61074c565b005b61029e6004803603810190610299919061193c565b610762565b005b6102ba60048036038101906102b591906115fc565b61077f565b6040516102c791906115a4565b60405180910390f35b6102ea60048036038101906102e59190611a60565b610824565b005b61030660048036038101906103019190611aa9565b61086e565b60405161031391906114f9565b60405180910390f35b60007f80ac58cd000000000000000000000000000000000000000000000000000000007bffffffffffffffffffffffffffffffffffffffffffffffffffffffff1916827bffffffffffffffffffffffffffffffffffffffffffffffffffffffff191614806103e757507f5b5e139f000000000000000000000000000000000000000000000000000000007bffffffffffffffffffffffffffffffffffffffffffffffffffffffff1916827bffffffffffffffffffffffffffffffffffffffffffffffffffffffff1916145b806103f757506103f682610902565b5b9050919050565b60606000805461040d90611b18565b80601f016020809104026020016040519081016040528092919081815260200182805461043990611b18565b80156104865780601f1061045b57610100808354040283529160200191610486565b820191906000526020600020905b81548152906001019060200180831161046957829003601f168201915b5050505050905090565b600061049b8261096c565b506104a5826109f4565b9050919050565b6104be82826104b9610a31565b610a39565b5050565b600073ffffffffffffffffffffffffffffffffffffffff168273ffffffffffffffffffffffffffffffffffffffff16036105345760006040517f64a0ae9200000000000000000000000000000000000000000000000000000000815260040161052b919061166a565b60405180910390fd5b60006105488383610543610a31565b610a4b565b90508373ffffffffffffffffffffffffffffffffffffffff168173ffffffffffffffffffffffffffffffffffffffff16146105be578382826040517f64283d7b0000000000000000000000000000000000000000000000000000000081526004016105b593929190611b49565b60405180910390fd5b50505050565b6105df83838360405180602001604052806000815250610762565b505050565b60006105ef8261096c565b9050919050565b6000600754905090565b60008073ffffffffffffffffffffffffffffffffffffffff168273ffffffffffffffffffffffffffffffffffffffff16036106735760006040517f89c62b6400000000000000000000000000000000000000000000000000000000815260040161066a919061166a565b60405180910390fd5b600360008373ffffffffffffffffffffffffffffffffffffffff1673ffffffffffffffffffffffffffffffffffffffff168152602001908152602001600020549050919050565b6060600180546106c990611b18565b80601f01602080910402602001604051908101604052809291908181526020018280546106f590611b18565b80156107425780601f1061071757610100808354040283529160200191610742565b820191906000526020600020905b81548152906001019060200180831161072557829003601f168201915b5050505050905090565b61075e610757610a31565b8383610c65565b5050565b61076d8484846104c2565b61077984848484610dd4565b50505050565b606060066000838152602001908152602001600020805461079f90611b18565b80601f01602080910402602001604051908101604052809291908181526020018280546107cb90611b18565b80156108185780601f106107ed57610100808354040283529160200191610818565b820191906000526020600020905b8154815290600101906020018083116107fb57829003601f168201915b50505050509050919050565b8060066000600754815260200190815260200160002090816108469190611d2c565b5061085333600754610f8b565b6007600081548092919061086690611e2d565b919050555050565b6000600560008473ffffffffffffffffffffffffffffffffffffffff1673ffffffffffffffffffffffffffffffffffffffff16815260200190815260200160002060008373ffffffffffffffffffffffffffffffffffffffff1673ffffffffffffffffffffffffffffffffffffffff16815260200190815260200160002060009054906101000a900460ff16905092915050565b60007f01ffc9a7000000000000000000000000000000000000000000000000000000007bffffffffffffffffffffffffffffffffffffffffffffffffffffffff1916827bffffffffffffffffffffffffffffffffffffffffffffffffffffffff1916149050919050565b60008061097883610fa9565b9050600073ffffffffffffffffffffffffffffffffffffffff168173ffffffffffffffffffffffffffffffffffffffff16036109eb57826040517f7e2732890000000000000000000000000000000000000000000000000000000081526004016109e29190611753565b60405180910390fd5b80915050919050565b60006004600083815260200190815260200160002060009054906101000a900473ffffffffffffffffffffffffffffffffffffffff169050919050565b600033905090565b610a468383836001610fe6565b505050565b600080610a5784610fa9565b9050600073ffffffffffffffffffffffffffffffffffffffff168373ffffffffffffffffffffffffffffffffffffffff1614610a9957610a988184866111ab565b5b600073ffffffffffffffffffffffffffffffffffffffff168173ffffffffffffffffffffffffffffffffffffffff1614610b2a57610adb600085600080610fe6565b6001600360008373ffffffffffffffffffffffffffffffffffffffff1673ffffffffffffffffffffffffffffffffffffffff168152602001908152602001600020600082825403925050819055505b600073ffffffffffffffffffffffffffffffffffffffff168573ffffffffffffffffffffffffffffffffffffffff1614610bad576001600360008773ffffffffffffffffffffffffffffffffffffffff1673ffffffffffffffffffffffffffffffffffffffff168152602001908152602001600020600082825401925050819055505b846002600086815260200190815260200160002060006101000a81548173ffffffffffffffffffffffffffffffffffffffff021916908373ffffffffffffffffffffffffffffffffffffffff160217905550838573ffffffffffffffffffffffffffffffffffffffff168273ffffffffffffffffffffffffffffffffffffffff167fddf252ad1be2c89b69c2b068fc378daa952ba7f163c4a11628f55a4df523b3ef60405160405180910390a4809150509392505050565b600073ffffffffffffffffffffffffffffffffffffffff168273ffffffffffffffffffffffffffffffffffffffff1603610cd657816040517f5b08ba18000000000000000000000000000000000000000000000000000000008152600401610ccd919061166a565b60405180910390fd5b80600560008573ffffffffffffffffffffffffffffffffffffffff1673ffffffffffffffffffffffffffffffffffffffff16815260200190815260200160002060008473ffffffffffffffffffffffffffffffffffffffff1673ffffffffffffffffffffffffffffffffffffffff16815260200190815260200160002060006101000a81548160ff0219169083151502179055508173ffffffffffffffffffffffffffffffffffffffff168373ffffffffffffffffffffffffffffffffffffffff167f17307eab39ab6107e8899845ad3d59bd9653f200f220920489ca2b5937696c3183604051610dc791906114f9565b60405180910390a3505050565b60008373ffffffffffffffffffffffffffffffffffffffff163b1115610f85578273ffffffffffffffffffffffffffffffffffffffff1663150b7a02610e18610a31565b8685856040518563ffffffff1660e01b8152600401610e3a9493929190611eca565b6020604051808303816000875af1925050508015610e7657506040513d601f19601f82011682018060405250810190610e739190611f2b565b60015b610efa573d8060008114610ea6576040519150601f19603f3d011682016040523d82523d6000602084013e610eab565b606091505b506000815103610ef257836040517f64a0ae92000000000000000000000000000000000000000000000000000000008152600401610ee9919061166a565b60405180910390fd5b805181602001fd5b63150b7a0260e01b7bffffffffffffffffffffffffffffffffffffffffffffffffffffffff1916817bffffffffffffffffffffffffffffffffffffffffffffffffffffffff191614610f8357836040517f64a0ae92000000000000000000000000000000000000000000000000000000008152600401610f7a919061166a565b60405180910390fd5b505b50505050565b610fa582826040518060200160405280600081525061126f565b5050565b60006002600083815260200190815260200160002060009054906101000a900473ffffffffffffffffffffffffffffffffffffffff169050919050565b808061101f5750600073ffffffffffffffffffffffffffffffffffffffff168273ffffffffffffffffffffffffffffffffffffffff1614155b1561115357600061102f8461096c565b9050600073ffffffffffffffffffffffffffffffffffffffff168373ffffffffffffffffffffffffffffffffffffffff161415801561109a57508273ffffffffffffffffffffffffffffffffffffffff168173ffffffffffffffffffffffffffffffffffffffff1614155b80156110ad57506110ab818461086e565b155b156110ef57826040517fa9fbf51f0000000000000000000000000000000000000000000000000000000081526004016110e6919061166a565b60405180910390fd5b811561115157838573ffffffffffffffffffffffffffffffffffffffff168273ffffffffffffffffffffffffffffffffffffffff167f8c5be1e5ebec7d5bd14f71427d1e84f3dd0314c0f7b2291e5b200ac8c7c3b92560405160405180910390a45b505b836004600085815260200190815260200160002060006101000a81548173ffffffffffffffffffffffffffffffffffffffff021916908373ffffffffffffffffffffffffffffffffffffffff16021790555050505050565b6111b683838361128b565b61126a57600073ffffffffffffffffffffffffffffffffffffffff168373ffffffffffffffffffffffffffffffffffffffff160361122b57806040517f7e2732890000000000000000000000000000000000000000000000000000000081526004016112229190611753565b60405180910390fd5b81816040517f177e802f000000000000000000000000000000000000000000000000000000008152600401611261929190611f58565b60405180910390fd5b505050565b611279838361134c565b6112866000848484610dd4565b505050565b60008073ffffffffffffffffffffffffffffffffffffffff168373ffffffffffffffffffffffffffffffffffffffff161415801561134357508273ffffffffffffffffffffffffffffffffffffffff168473ffffffffffffffffffffffffffffffffffffffff1614806113045750611303848461086e565b5b8061134257508273ffffffffffffffffffffffffffffffffffffffff1661132a836109f4565b73ffffffffffffffffffffffffffffffffffffffff16145b5b90509392505050565b600073ffffffffffffffffffffffffffffffffffffffff168273ffffffffffffffffffffffffffffffffffffffff16036113be5760006040517f64a0ae920000000000000000000000000000000000000000000000000000000081526004016113b5919061166a565b60405180910390fd5b60006113cc83836000610a4b565b9050600073ffffffffffffffffffffffffffffffffffffffff168173ffffffffffffffffffffffffffffffffffffffff16146114405760006040517f73c6ac6e000000000000000000000000000000000000000000000000000000008152600401611437919061166a565b60405180910390fd5b505050565b6000604051905090565b600080fd5b600080fd5b60007fffffffff0000000000000000000000000000000000000000000000000000000082169050919050565b61148e81611459565b811461149957600080fd5b50565b6000813590506114ab81611485565b92915050565b6000602082840312156114c7576114c661144f565b5b60006114d58482850161149c565b91505092915050565b60008115159050919050565b6114f3816114de565b82525050565b600060208201905061150e60008301846114ea565b92915050565b600081519050919050565b600082825260208201905092915050565b60005b8381101561154e578082015181840152602081019050611533565b60008484015250505050565b6000601f19601f8301169050919050565b600061157682611514565b611580818561151f565b9350611590818560208601611530565b6115998161155a565b840191505092915050565b600060208201905081810360008301526115be818461156b565b905092915050565b6000819050919050565b6115d9816115c6565b81146115e457600080fd5b50565b6000813590506115f6816115d0565b92915050565b6000602082840312156116125761161161144f565b5b6000611620848285016115e7565b91505092915050565b600073ffffffffffffffffffffffffffffffffffffffff82169050919050565b600061165482611629565b9050919050565b61166481611649565b82525050565b600060208201905061167f600083018461165b565b92915050565b61168e81611649565b811461169957600080fd5b50565b6000813590506116ab81611685565b92915050565b600080604083850312156116c8576116c761144f565b5b60006116d68582860161169c565b92505060206116e7858286016115e7565b9150509250929050565b60008060006060848603121561170a5761170961144f565b5b60006117188682870161169c565b93505060206117298682870161169c565b925050604061173a868287016115e7565b9150509250925092565b61174d816115c6565b82525050565b60006020820190506117686000830184611744565b92915050565b6000602082840312156117845761178361144f565b5b60006117928482850161169c565b91505092915050565b6117a4816114de565b81146117af57600080fd5b50565b6000813590506117c18161179b565b92915050565b600080604083850312156117de576117dd61144f565b5b60006117ec8582860161169c565b92505060206117fd858286016117b2565b9150509250929050565b600080fd5b600080fd5b7f4e487b7100000000000000000000000000000000000000000000000000000000600052604160045260246000fd5b6118498261155a565b810181811067ffffffffffffffff8211171561186857611867611811565b5b80604052505050565b600061187b611445565b90506118878282611840565b919050565b600067ffffffffffffffff8211156118a7576118a6611811565b5b6118b08261155a565b9050602081019050919050565b82818337600083830152505050565b60006118df6118da8461188c565b611871565b9050828152602081018484840111156118fb576118fa61180c565b5b6119068482856118bd565b509392505050565b600082601f83011261192357611922611807565b5b81356119338482602086016118cc565b91505092915050565b600080600080608085870312156119565761195561144f565b5b60006119648782880161169c565b94505060206119758782880161169c565b9350506040611986878288016115e7565b925050606085013567ffffffffffffffff8111156119a7576119a6611454565b5b6119b38782880161190e565b91505092959194509250565b600067ffffffffffffffff8211156119da576119d9611811565b5b6119e38261155a565b9050602081019050919050565b6000611a036119fe846119bf565b611871565b905082815260208101848484011115611a1f57611a1e61180c565b5b611a2a8482856118bd565b509392505050565b600082601f830112611a4757611a46611807565b5b8135611a578482602086016119f0565b91505092915050565b600060208284031215611a7657611a7561144f565b5b600082013567ffffffffffffffff811115611a9457611a93611454565b5b611aa084828501611a32565b91505092915050565b60008060408385031215611ac057611abf61144f565b5b6000611ace8582860161169c565b9250506020611adf8582860161169c565b9150509250929050565b7f4e487b7100000000000000000000000000000000000000000000000000000000600052602260045260246000fd5b60006002820490506001821680611b3057607f821691505b602082108103611b4357611b42611ae9565b5b50919050565b6000606082019050611b5e600083018661165b565b611b6b6020830185611744565b611b78604083018461165b565b949350505050565b60008190508160005260206000209050919050565b60006020601f8301049050919050565b600082821b905092915050565b600060088302611be27fffffffffffffffffffffffffffffffffffffffffffffffffffffffffffffffff82611ba5565b611bec8683611ba5565b95508019841693508086168417925050509392505050565b6000819050919050565b6000611c29611c24611c1f846115c6565b611c04565b6115c6565b9050919050565b6000819050919050565b611c4383611c0e565b611c57611c4f82611c30565b848454611bb2565b825550505050565b600090565b611c6c611c5f565b611c77818484611c3a565b505050565b5b81811015611c9b57611c90600082611c64565b600181019050611c7d565b5050565b601f821115611ce057611cb181611b80565b611cba84611b95565b81016020851015611cc9578190505b611cdd611cd585611b95565b830182611c7c565b50505b505050565b600082821c905092915050565b6000611d0360001984600802611ce5565b1980831691505092915050565b6000611d1c8383611cf2565b9150826002028217905092915050565b611d3582611514565b67ffffffffffffffff811115611d4e57611d4d611811565b5b611d588254611b18565b611d63828285611c9f565b600060209050601f831160018114611d965760008415611d84578287015190505b611d8e8582611d10565b865550611df6565b601f198416611da486611b80565b60005b82811015611dcc57848901518255600182019150602085019450602081019050611da7565b86831015611de95784890151611de5601f891682611cf2565b8355505b6001600288020188555050505b505050505050565b7f4e487b7100000000000000000000000000000000000000000000000000000000600052601160045260246000fd5b6000611e38826115c6565b91507fffffffffffffffffffffffffffffffffffffffffffffffffffffffffffffffff8203611e6a57611e69611dfe565b5b600182019050919050565b600081519050919050565b600082825260208201905092915050565b6000611e9c82611e75565b611ea68185611e80565b9350611eb6818560208601611530565b611ebf8161155a565b840191505092915050565b6000608082019050611edf600083018761165b565b611eec602083018661165b565b611ef96040830185611744565b8181036060830152611f0b8184611e91565b905095945050505050565b600081519050611f2581611485565b92915050565b600060208284031215611f4157611f4061144f565b5b6000611f4f84828501611f16565b91505092915050565b6000604082019050611f6d600083018561165b565b611f7a6020830184611744565b939250505056fea26469706673582212202110aaaa14ab783321ce6f6a2fa0a588f4d93b29f2d94b6e45c17ce0f5d8ae4964736f6c63430008180033",
  "linkReferences": {},
  "deployedLinkReferences": {}
}