{
  "_format": "hh-sol-artifact-1",
  "contractName": "BasicOnChainNft",
  "sourceName": "contracts/BasicOnChainNft.sol",
  "abi": [
    {
      "inputs": [
        {
          "internalType": "string",
          "name": "_name",
          "type": "string"
        },
        {
          "internalType": "string",
          "name": "_symbol",
          "type": "string"
        },
        {
          "internalType": "string",
          "name": "_description",
          "type": "string"
        },
        {
          "internalType": "string",
          "name": "_imageUri",
          "type": "string"
        },
        {
          "internalType": "address",
          "name": "_ownershipVerifierContract",
          "type": "address"
        }
      ],
      "stateMutability": "nonpayable",
      "type": "constructor"
    },
    {
      "inputs": [],
      "name": "BasicNft__TokenUriNotFound",
      "type": "error"
    },
    {
      "inputs": [],
      "name": "BasicOnChainNft__CollectionHasOnlyUniquePieces",
      "type": "error"
    },
    {
      "inputs": [],
      "name": "BasicOnChainNft__InvalidHash",
      "type": "error"
    },
    {
      "inputs": [
        {
          "internalType": "address",
          "name": "sender",
          "type": "address"
        },
        {
          "internalType": "uint256",
          "name": "tokenId",
          "type": "uint256"
        },
        {
          "internalType": "address",
          "name": "owner",
          "type": "address"
        }
      ],
      "name": "ERC721IncorrectOwner",
      "type": "error"
    },
    {
      "inputs": [
        {
          "internalType": "address",
          "name": "operator",
          "type": "address"
        },
        {
          "internalType": "uint256",
          "name": "tokenId",
          "type": "uint256"
        }
      ],
      "name": "ERC721InsufficientApproval",
      "type": "error"
    },
    {
      "inputs": [
        {
          "internalType": "address",
          "name": "approver",
          "type": "address"
        }
      ],
      "name": "ERC721InvalidApprover",
      "type": "error"
    },
    {
      "inputs": [
        {
          "internalType": "address",
          "name": "operator",
          "type": "address"
        }
      ],
      "name": "ERC721InvalidOperator",
      "type": "error"
    },
    {
      "inputs": [
        {
          "internalType": "address",
          "name": "owner",
          "type": "address"
        }
      ],
      "name": "ERC721InvalidOwner",
      "type": "error"
    },
    {
      "inputs": [
        {
          "internalType": "address",
          "name": "receiver",
          "type": "address"
        }
      ],
      "name": "ERC721InvalidReceiver",
      "type": "error"
    },
    {
      "inputs": [
        {
          "internalType": "address",
          "name": "sender",
          "type": "address"
        }
      ],
      "name": "ERC721InvalidSender",
      "type": "error"
    },
    {
      "inputs": [
        {
          "internalType": "uint256",
          "name": "tokenId",
          "type": "uint256"
        }
      ],
      "name": "ERC721NonexistentToken",
      "type": "error"
    },
    {
      "anonymous": false,
      "inputs": [
        {
          "indexed": true,
          "internalType": "address",
          "name": "owner",
          "type": "address"
        },
        {
          "indexed": true,
          "internalType": "address",
          "name": "approved",
          "type": "address"
        },
        {
          "indexed": true,
          "internalType": "uint256",
          "name": "tokenId",
          "type": "uint256"
        }
      ],
      "name": "Approval",
      "type": "event"
    },
    {
      "anonymous": false,
      "inputs": [
        {
          "indexed": true,
          "internalType": "address",
          "name": "owner",
          "type": "address"
        },
        {
          "indexed": true,
          "internalType": "address",
          "name": "operator",
          "type": "address"
        },
        {
          "indexed": false,
          "internalType": "bool",
          "name": "approved",
          "type": "bool"
        }
      ],
      "name": "ApprovalForAll",
      "type": "event"
    },
    {
      "anonymous": false,
      "inputs": [
        {
          "indexed": true,
          "internalType": "address",
          "name": "from",
          "type": "address"
        },
        {
          "indexed": true,
          "internalType": "address",
          "name": "to",
          "type": "address"
        },
        {
          "indexed": true,
          "internalType": "uint256",
          "name": "tokenId",
          "type": "uint256"
        }
      ],
      "name": "Transfer",
      "type": "event"
    },
    {
      "inputs": [
        {
          "internalType": "address",
          "name": "to",
          "type": "address"
        },
        {
          "internalType": "uint256",
          "name": "tokenId",
          "type": "uint256"
        }
      ],
      "name": "approve",
      "outputs": [],
      "stateMutability": "nonpayable",
      "type": "function"
    },
    {
      "inputs": [
        {
          "internalType": "address",
          "name": "owner",
          "type": "address"
        }
      ],
      "name": "balanceOf",
      "outputs": [
        {
          "internalType": "uint256",
          "name": "",
          "type": "uint256"
        }
      ],
      "stateMutability": "view",
      "type": "function"
    },
    {
      "inputs": [
        {
          "internalType": "address",
          "name": "to",
          "type": "address"
        },
        {
          "internalType": "string",
          "name": "answer",
          "type": "string"
        },
        {
          "internalType": "uint256",
          "name": "tokenId",
          "type": "uint256"
        }
      ],
      "name": "claimOwnership",
      "outputs": [],
      "stateMutability": "nonpayable",
      "type": "function"
    },
    {
      "inputs": [
        {
          "internalType": "address",
          "name": "to",
          "type": "address"
        },
        {
          "internalType": "bytes",
          "name": "answerHash",
          "type": "bytes"
        },
        {
          "internalType": "uint256",
          "name": "tokenId",
          "type": "uint256"
        }
      ],
      "name": "claimOwnershipHash",
      "outputs": [],
      "stateMutability": "nonpayable",
      "type": "function"
    },
    {
      "inputs": [
        {
          "internalType": "uint256",
          "name": "tokenId",
          "type": "uint256"
        }
      ],
      "name": "getApproved",
      "outputs": [
        {
          "internalType": "address",
          "name": "",
          "type": "address"
        }
      ],
      "stateMutability": "view",
      "type": "function"
    },
    {
      "inputs": [],
      "name": "getTokenCounter",
      "outputs": [
        {
          "internalType": "uint256",
          "name": "",
          "type": "uint256"
        }
      ],
      "stateMutability": "view",
      "type": "function"
    },
    {
      "inputs": [
        {
          "internalType": "address",
          "name": "owner",
          "type": "address"
        },
        {
          "internalType": "address",
          "name": "operator",
          "type": "address"
        }
      ],
      "name": "isApprovedForAll",
      "outputs": [
        {
          "internalType": "bool",
          "name": "",
          "type": "bool"
        }
      ],
      "stateMutability": "view",
      "type": "function"
    },
    {
      "inputs": [],
      "name": "mintNft",
      "outputs": [],
      "stateMutability": "nonpayable",
      "type": "function"
    },
    {
      "inputs": [
        {
          "internalType": "address",
          "name": "to",
          "type": "address"
        }
      ],
      "name": "mintNftFor",
      "outputs": [],
      "stateMutability": "nonpayable",
      "type": "function"
    },
    {
      "inputs": [],
      "name": "name",
      "outputs": [
        {
          "internalType": "string",
          "name": "",
          "type": "string"
        }
      ],
      "stateMutability": "view",
      "type": "function"
    },
    {
      "inputs": [
        {
          "internalType": "uint256",
          "name": "tokenId",
          "type": "uint256"
        }
      ],
      "name": "ownerOf",
      "outputs": [
        {
          "internalType": "address",
          "name": "",
          "type": "address"
        }
      ],
      "stateMutability": "view",
      "type": "function"
    },
    {
      "inputs": [],
      "name": "ownershipVerifierContract",
      "outputs": [
        {
          "internalType": "contract IVerifier",
          "name": "",
          "type": "address"
        }
      ],
      "stateMutability": "view",
      "type": "function"
    },
    {
      "inputs": [
        {
          "internalType": "address",
          "name": "from",
          "type": "address"
        },
        {
          "internalType": "address",
          "name": "to",
          "type": "address"
        },
        {
          "internalType": "uint256",
          "name": "tokenId",
          "type": "uint256"
        }
      ],
      "name": "safeTransferFrom",
      "outputs": [],
      "stateMutability": "nonpayable",
      "type": "function"
    },
    {
      "inputs": [
        {
          "internalType": "address",
          "name": "from",
          "type": "address"
        },
        {
          "internalType": "address",
          "name": "to",
          "type": "address"
        },
        {
          "internalType": "uint256",
          "name": "tokenId",
          "type": "uint256"
        },
        {
          "internalType": "bytes",
          "name": "data",
          "type": "bytes"
        }
      ],
      "name": "safeTransferFrom",
      "outputs": [],
      "stateMutability": "nonpayable",
      "type": "function"
    },
    {
      "inputs": [
        {
          "internalType": "address",
          "name": "operator",
          "type": "address"
        },
        {
          "internalType": "bool",
          "name": "approved",
          "type": "bool"
        }
      ],
      "name": "setApprovalForAll",
      "outputs": [],
      "stateMutability": "nonpayable",
      "type": "function"
    },
    {
      "inputs": [
        {
          "internalType": "bytes4",
          "name": "interfaceId",
          "type": "bytes4"
        }
      ],
      "name": "supportsInterface",
      "outputs": [
        {
          "internalType": "bool",
          "name": "",
          "type": "bool"
        }
      ],
      "stateMutability": "view",
      "type": "function"
    },
    {
      "inputs": [],
      "name": "symbol",
      "outputs": [
        {
          "internalType": "string",
          "name": "",
          "type": "string"
        }
      ],
      "stateMutability": "view",
      "type": "function"
    },
    {
      "inputs": [
        {
          "internalType": "uint256",
          "name": "tokenId",
          "type": "uint256"
        }
      ],
      "name": "tokenURI",
      "outputs": [
        {
          "internalType": "string",
          "name": "",
          "type": "string"
        }
      ],
      "stateMutability": "view",
      "type": "function"
    },
    {
      "inputs": [
        {
          "internalType": "address",
          "name": "from",
          "type": "address"
        },
        {
          "internalType": "address",
          "name": "to",
          "type": "address"
        },
        {
          "internalType": "uint256",
          "name": "tokenId",
          "type": "uint256"
        }
      ],
      "name": "transferFrom",
      "outputs": [],
      "stateMutability": "nonpayable",
      "type": "function"
    }
  ],
  "bytecode": "0x60806040526040518060200160405280600081525060089081620000249190620003b9565b506040518060400160405280600781526020017f697066733a2f2f00000000000000000000000000000000000000000000000000815250600990816200006b9190620003b9565b503480156200007957600080fd5b50604051620031bc380380620031bc83398181016040528101906200009f919062000669565b84848160009081620000b29190620003b9565b508060019081620000c49190620003b9565b50505060006007819055508160099081620000e09190620003b9565b508260089081620000f29190620003b9565b5080600660006101000a81548173ffffffffffffffffffffffffffffffffffffffff021916908373ffffffffffffffffffffffffffffffffffffffff16021790555050505050506200076d565b600081519050919050565b7f4e487b7100000000000000000000000000000000000000000000000000000000600052604160045260246000fd5b7f4e487b7100000000000000000000000000000000000000000000000000000000600052602260045260246000fd5b60006002820490506001821680620001c157607f821691505b602082108103620001d757620001d662000179565b5b50919050565b60008190508160005260206000209050919050565b60006020601f8301049050919050565b600082821b905092915050565b600060088302620002417fffffffffffffffffffffffffffffffffffffffffffffffffffffffffffffffff8262000202565b6200024d868362000202565b95508019841693508086168417925050509392505050565b6000819050919050565b6000819050919050565b60006200029a620002946200028e8462000265565b6200026f565b62000265565b9050919050565b6000819050919050565b620002b68362000279565b620002ce620002c582620002a1565b8484546200020f565b825550505050565b600090565b620002e5620002d6565b620002f2818484620002ab565b505050565b5b818110156200031a576200030e600082620002db565b600181019050620002f8565b5050565b601f82111562000369576200033381620001dd565b6200033e84620001f2565b810160208510156200034e578190505b620003666200035d85620001f2565b830182620002f7565b50505b505050565b600082821c905092915050565b60006200038e600019846008026200036e565b1980831691505092915050565b6000620003a983836200037b565b9150826002028217905092915050565b620003c4826200013f565b67ffffffffffffffff811115620003e057620003df6200014a565b5b620003ec8254620001a8565b620003f98282856200031e565b600060209050601f8311600181146200043157600084156200041c578287015190505b6200042885826200039b565b86555062000498565b601f1984166200044186620001dd565b60005b828110156200046b5784890151825560018201915060208501945060208101905062000444565b868310156200048b578489015162000487601f8916826200037b565b8355505b6001600288020188555050505b505050505050565b6000604051905090565b600080fd5b600080fd5b600080fd5b600080fd5b6000601f19601f8301169050919050565b620004da82620004be565b810181811067ffffffffffffffff82111715620004fc57620004fb6200014a565b5b80604052505050565b600062000511620004a0565b90506200051f8282620004cf565b919050565b600067ffffffffffffffff8211156200054257620005416200014a565b5b6200054d82620004be565b9050602081019050919050565b60005b838110156200057a5780820151818401526020810190506200055d565b60008484015250505050565b60006200059d620005978462000524565b62000505565b905082815260208101848484011115620005bc57620005bb620004b9565b5b620005c98482856200055a565b509392505050565b600082601f830112620005e957620005e8620004b4565b5b8151620005fb84826020860162000586565b91505092915050565b600073ffffffffffffffffffffffffffffffffffffffff82169050919050565b6000620006318262000604565b9050919050565b620006438162000624565b81146200064f57600080fd5b50565b600081519050620006638162000638565b92915050565b600080600080600060a08688031215620006885762000687620004aa565b5b600086015167ffffffffffffffff811115620006a957620006a8620004af565b5b620006b788828901620005d1565b955050602086015167ffffffffffffffff811115620006db57620006da620004af565b5b620006e988828901620005d1565b945050604086015167ffffffffffffffff8111156200070d576200070c620004af565b5b6200071b88828901620005d1565b935050606086015167ffffffffffffffff8111156200073f576200073e620004af565b5b6200074d88828901620005d1565b9250506080620007608882890162000652565b9150509295509295909350565b612a3f806200077d6000396000f3fe608060405234801561001057600080fd5b50600436106101215760003560e01c806360bf1e95116100ad578063a22cb46511610071578063a22cb46514610306578063b88d4fde14610322578063c2229fea1461033e578063c87b56dd14610348578063e985e9c51461037857610121565b806360bf1e951461024e5780636352211e1461026a5780636e02007d1461029a57806370a08231146102b857806395d89b41146102e857610121565b8063095ea7b3116100f4578063095ea7b3146101c05780631e74be63146101dc57806323b872dd146101fa5780634097aa571461021657806342842e0e1461023257610121565b806301ffc9a71461012657806306fdde0314610156578063081812fc14610174578063091db412146101a4575b600080fd5b610140600480360381019061013b9190611ab0565b6103a8565b60405161014d9190611af8565b60405180910390f35b61015e61048a565b60405161016b9190611ba3565b60405180910390f35b61018e60048036038101906101899190611bfb565b61051c565b60405161019b9190611c69565b60405180910390f35b6101be60048036038101906101b99190611cb0565b610538565b005b6101da60048036038101906101d59190611cdd565b610544565b005b6101e461055a565b6040516101f19190611d7c565b60405180910390f35b610214600480360381019061020f9190611d97565b610580565b005b610230600480360381019061022b9190611e4f565b610682565b005b61024c60048036038101906102479190611d97565b610770565b005b61026860048036038101906102639190611f19565b610790565b005b610284600480360381019061027f9190611bfb565b61087d565b6040516102919190611c69565b60405180910390f35b6102a261088f565b6040516102af9190611f9c565b60405180910390f35b6102d260048036038101906102cd9190611cb0565b610899565b6040516102df9190611f9c565b60405180910390f35b6102f0610953565b6040516102fd9190611ba3565b60405180910390f35b610320600480360381019061031b9190611fe3565b6109e5565b005b61033c60048036038101906103379190612153565b6109fb565b005b610346610a18565b005b610362600480360381019061035d9190611bfb565b610a23565b60405161036f9190611ba3565b60405180910390f35b610392600480360381019061038d91906121d6565b610aee565b60405161039f9190611af8565b60405180910390f35b60007f80ac58cd000000000000000000000000000000000000000000000000000000007bffffffffffffffffffffffffffffffffffffffffffffffffffffffff1916827bffffffffffffffffffffffffffffffffffffffffffffffffffffffff1916148061047357507f5b5e139f000000000000000000000000000000000000000000000000000000007bffffffffffffffffffffffffffffffffffffffffffffffffffffffff1916827bffffffffffffffffffffffffffffffffffffffffffffffffffffffff1916145b80610483575061048282610b82565b5b9050919050565b60606000805461049990612245565b80601f01602080910402602001604051908101604052809291908181526020018280546104c590612245565b80156105125780601f106104e757610100808354040283529160200191610512565b820191906000526020600020905b8154815290600101906020018083116104f557829003601f168201915b5050505050905090565b600061052782610bec565b5061053182610c74565b9050919050565b61054181610cb1565b50565b6105568282610551610d14565b610d1c565b5050565b600660009054906101000a900473ffffffffffffffffffffffffffffffffffffffff1681565b600073ffffffffffffffffffffffffffffffffffffffff168273ffffffffffffffffffffffffffffffffffffffff16036105f25760006040517f64a0ae920000000000000000000000000000000000000000000000000000000081526004016105e99190611c69565b60405180910390fd5b60006106068383610601610d14565b610d2e565b90508373ffffffffffffffffffffffffffffffffffffffff168173ffffffffffffffffffffffffffffffffffffffff161461067c578382826040517f64283d7b00000000000000000000000000000000000000000000000000000000815260040161067393929190612276565b60405180910390fd5b50505050565b600660009054906101000a900473ffffffffffffffffffffffffffffffffffffffff1673ffffffffffffffffffffffffffffffffffffffff1663a2d5df5984846040518363ffffffff1660e01b81526004016106df9291906122eb565b602060405180830381865afa1580156106fc573d6000803e3d6000fd5b505050506040513d601f19601f820116820180604052508101906107209190612324565b15610757576040517f61da49d300000000000000000000000000000000000000000000000000000000815260040160405180910390fd5b61076a61076382610f48565b8583610f85565b50505050565b61078b838383604051806020016040528060008152506109fb565b505050565b600660009054906101000a900473ffffffffffffffffffffffffffffffffffffffff1673ffffffffffffffffffffffffffffffffffffffff166360ea95f184846040518363ffffffff1660e01b81526004016107ed92919061237e565b602060405180830381865afa15801561080a573d6000803e3d6000fd5b505050506040513d601f19601f8201168201806040525081019061082e9190612324565b610864576040517f61da49d300000000000000000000000000000000000000000000000000000000815260040160405180910390fd5b61087761087082610f48565b8583610f85565b50505050565b600061088882610bec565b9050919050565b6000600754905090565b60008073ffffffffffffffffffffffffffffffffffffffff168273ffffffffffffffffffffffffffffffffffffffff160361090c5760006040517f89c62b640000000000000000000000000000000000000000000000000000000081526004016109039190611c69565b60405180910390fd5b600360008373ffffffffffffffffffffffffffffffffffffffff1673ffffffffffffffffffffffffffffffffffffffff168152602001908152602001600020549050919050565b60606001805461096290612245565b80601f016020809104026020016040519081016040528092919081815260200182805461098e90612245565b80156109db5780601f106109b0576101008083540402835291602001916109db565b820191906000526020600020905b8154815290600101906020018083116109be57829003601f168201915b5050505050905090565b6109f76109f0610d14565b8383610fa5565b5050565b610a06848484610580565b610a1284848484611114565b50505050565b610a2133610cb1565b565b6060600073ffffffffffffffffffffffffffffffffffffffff16610a468361087d565b73ffffffffffffffffffffffffffffffffffffffff1603610a93576040517f7598996f00000000000000000000000000000000000000000000000000000000815260040160405180910390fd5b610ac8610a9e61048a565b60086009604051602001610ab49392919061268a565b6040516020818303038152906040526112cb565b604051602001610ad8919061275f565b6040516020818303038152906040529050919050565b6000600560008473ffffffffffffffffffffffffffffffffffffffff1673ffffffffffffffffffffffffffffffffffffffff16815260200190815260200160002060008373ffffffffffffffffffffffffffffffffffffffff1673ffffffffffffffffffffffffffffffffffffffff16815260200190815260200160002060009054906101000a900460ff16905092915050565b60007f01ffc9a7000000000000000000000000000000000000000000000000000000007bffffffffffffffffffffffffffffffffffffffffffffffffffffffff1916827bffffffffffffffffffffffffffffffffffffffffffffffffffffffff1916149050919050565b600080610bf883610f48565b9050600073ffffffffffffffffffffffffffffffffffffffff168173ffffffffffffffffffffffffffffffffffffffff1603610c6b57826040517f7e273289000000000000000000000000000000000000000000000000000000008152600401610c629190611f9c565b60405180910390fd5b80915050919050565b60006004600083815260200190815260200160002060009054906101000a900473ffffffffffffffffffffffffffffffffffffffff169050919050565b600060075414610ced576040517f16b67e1b00000000000000000000000000000000000000000000000000000000815260040160405180910390fd5b610cf98160075461143d565b60076000815480929190610d0c906127b0565b919050555050565b600033905090565b610d29838383600161145b565b505050565b600080610d3a84610f48565b9050600073ffffffffffffffffffffffffffffffffffffffff168373ffffffffffffffffffffffffffffffffffffffff1614610d7c57610d7b818486611620565b5b600073ffffffffffffffffffffffffffffffffffffffff168173ffffffffffffffffffffffffffffffffffffffff1614610e0d57610dbe60008560008061145b565b6001600360008373ffffffffffffffffffffffffffffffffffffffff1673ffffffffffffffffffffffffffffffffffffffff168152602001908152602001600020600082825403925050819055505b600073ffffffffffffffffffffffffffffffffffffffff168573ffffffffffffffffffffffffffffffffffffffff1614610e90576001600360008773ffffffffffffffffffffffffffffffffffffffff1673ffffffffffffffffffffffffffffffffffffffff168152602001908152602001600020600082825401925050819055505b846002600086815260200190815260200160002060006101000a81548173ffffffffffffffffffffffffffffffffffffffff021916908373ffffffffffffffffffffffffffffffffffffffff160217905550838573ffffffffffffffffffffffffffffffffffffffff168273ffffffffffffffffffffffffffffffffffffffff167fddf252ad1be2c89b69c2b068fc378daa952ba7f163c4a11628f55a4df523b3ef60405160405180910390a4809150509392505050565b60006002600083815260200190815260200160002060009054906101000a900473ffffffffffffffffffffffffffffffffffffffff169050919050565b610fa0838383604051806020016040528060008152506116e4565b505050565b600073ffffffffffffffffffffffffffffffffffffffff168273ffffffffffffffffffffffffffffffffffffffff160361101657816040517f5b08ba1800000000000000000000000000000000000000000000000000000000815260040161100d9190611c69565b60405180910390fd5b80600560008573ffffffffffffffffffffffffffffffffffffffff1673ffffffffffffffffffffffffffffffffffffffff16815260200190815260200160002060008473ffffffffffffffffffffffffffffffffffffffff1673ffffffffffffffffffffffffffffffffffffffff16815260200190815260200160002060006101000a81548160ff0219169083151502179055508173ffffffffffffffffffffffffffffffffffffffff168373ffffffffffffffffffffffffffffffffffffffff167f17307eab39ab6107e8899845ad3d59bd9653f200f220920489ca2b5937696c31836040516111079190611af8565b60405180910390a3505050565b60008373ffffffffffffffffffffffffffffffffffffffff163b11156112c5578273ffffffffffffffffffffffffffffffffffffffff1663150b7a02611158610d14565b8685856040518563ffffffff1660e01b815260040161117a949392919061283c565b6020604051808303816000875af19250505080156111b657506040513d601f19601f820116820180604052508101906111b3919061289d565b60015b61123a573d80600081146111e6576040519150601f19603f3d011682016040523d82523d6000602084013e6111eb565b606091505b50600081510361123257836040517f64a0ae920000000000000000000000000000000000000000000000000000000081526004016112299190611c69565b60405180910390fd5b805181602001fd5b63150b7a0260e01b7bffffffffffffffffffffffffffffffffffffffffffffffffffffffff1916817bffffffffffffffffffffffffffffffffffffffffffffffffffffffff1916146112c357836040517f64a0ae920000000000000000000000000000000000000000000000000000000081526004016112ba9190611c69565b60405180910390fd5b505b50505050565b606060008251036112ed57604051806020016040528060008152509050611438565b60006040518060600160405280604081526020016129ca604091399050600060036002855161131c91906128ca565b611326919061292d565b6004611332919061295e565b67ffffffffffffffff81111561134b5761134a612028565b5b6040519080825280601f01601f19166020018201604052801561137d5781602001600182028036833780820191505090505b50905060018201602082018586518701602081018051600082525b828410156113f3576003840193508351603f8160121c168701518653600186019550603f81600c1c168701518653600186019550603f8160061c168701518653600186019550603f8116870151865360018601955050611398565b80825260038a51066001811461141057600281146114235761142b565b603d6001870353603d600287035361142b565b603d60018703535b5050505050505080925050505b919050565b611457828260405180602001604052806000815250611701565b5050565b80806114945750600073ffffffffffffffffffffffffffffffffffffffff168273ffffffffffffffffffffffffffffffffffffffff1614155b156115c85760006114a484610bec565b9050600073ffffffffffffffffffffffffffffffffffffffff168373ffffffffffffffffffffffffffffffffffffffff161415801561150f57508273ffffffffffffffffffffffffffffffffffffffff168173ffffffffffffffffffffffffffffffffffffffff1614155b801561152257506115208184610aee565b155b1561156457826040517fa9fbf51f00000000000000000000000000000000000000000000000000000000815260040161155b9190611c69565b60405180910390fd5b81156115c657838573ffffffffffffffffffffffffffffffffffffffff168273ffffffffffffffffffffffffffffffffffffffff167f8c5be1e5ebec7d5bd14f71427d1e84f3dd0314c0f7b2291e5b200ac8c7c3b92560405160405180910390a45b505b836004600085815260200190815260200160002060006101000a81548173ffffffffffffffffffffffffffffffffffffffff021916908373ffffffffffffffffffffffffffffffffffffffff16021790555050505050565b61162b83838361171d565b6116df57600073ffffffffffffffffffffffffffffffffffffffff168373ffffffffffffffffffffffffffffffffffffffff16036116a057806040517f7e2732890000000000000000000000000000000000000000000000000000000081526004016116979190611f9c565b60405180910390fd5b81816040517f177e802f0000000000000000000000000000000000000000000000000000000081526004016116d69291906129a0565b60405180910390fd5b505050565b6116ef8484846117de565b6116fb84848484611114565b50505050565b61170b838361194b565b6117186000848484611114565b505050565b60008073ffffffffffffffffffffffffffffffffffffffff168373ffffffffffffffffffffffffffffffffffffffff16141580156117d557508273ffffffffffffffffffffffffffffffffffffffff168473ffffffffffffffffffffffffffffffffffffffff16148061179657506117958484610aee565b5b806117d457508273ffffffffffffffffffffffffffffffffffffffff166117bc83610c74565b73ffffffffffffffffffffffffffffffffffffffff16145b5b90509392505050565b600073ffffffffffffffffffffffffffffffffffffffff168273ffffffffffffffffffffffffffffffffffffffff16036118505760006040517f64a0ae920000000000000000000000000000000000000000000000000000000081526004016118479190611c69565b60405180910390fd5b600061185e83836000610d2e565b9050600073ffffffffffffffffffffffffffffffffffffffff168173ffffffffffffffffffffffffffffffffffffffff16036118d157816040517f7e2732890000000000000000000000000000000000000000000000000000000081526004016118c89190611f9c565b60405180910390fd5b8373ffffffffffffffffffffffffffffffffffffffff168173ffffffffffffffffffffffffffffffffffffffff1614611945578382826040517f64283d7b00000000000000000000000000000000000000000000000000000000815260040161193c93929190612276565b60405180910390fd5b50505050565b600073ffffffffffffffffffffffffffffffffffffffff168273ffffffffffffffffffffffffffffffffffffffff16036119bd5760006040517f64a0ae920000000000000000000000000000000000000000000000000000000081526004016119b49190611c69565b60405180910390fd5b60006119cb83836000610d2e565b9050600073ffffffffffffffffffffffffffffffffffffffff168173ffffffffffffffffffffffffffffffffffffffff1614611a3f5760006040517f73c6ac6e000000000000000000000000000000000000000000000000000000008152600401611a369190611c69565b60405180910390fd5b505050565b6000604051905090565b600080fd5b600080fd5b60007fffffffff0000000000000000000000000000000000000000000000000000000082169050919050565b611a8d81611a58565b8114611a9857600080fd5b50565b600081359050611aaa81611a84565b92915050565b600060208284031215611ac657611ac5611a4e565b5b6000611ad484828501611a9b565b91505092915050565b60008115159050919050565b611af281611add565b82525050565b6000602082019050611b0d6000830184611ae9565b92915050565b600081519050919050565b600082825260208201905092915050565b60005b83811015611b4d578082015181840152602081019050611b32565b60008484015250505050565b6000601f19601f8301169050919050565b6000611b7582611b13565b611b7f8185611b1e565b9350611b8f818560208601611b2f565b611b9881611b59565b840191505092915050565b60006020820190508181036000830152611bbd8184611b6a565b905092915050565b6000819050919050565b611bd881611bc5565b8114611be357600080fd5b50565b600081359050611bf581611bcf565b92915050565b600060208284031215611c1157611c10611a4e565b5b6000611c1f84828501611be6565b91505092915050565b600073ffffffffffffffffffffffffffffffffffffffff82169050919050565b6000611c5382611c28565b9050919050565b611c6381611c48565b82525050565b6000602082019050611c7e6000830184611c5a565b92915050565b611c8d81611c48565b8114611c9857600080fd5b50565b600081359050611caa81611c84565b92915050565b600060208284031215611cc657611cc5611a4e565b5b6000611cd484828501611c9b565b91505092915050565b60008060408385031215611cf457611cf3611a4e565b5b6000611d0285828601611c9b565b9250506020611d1385828601611be6565b9150509250929050565b6000819050919050565b6000611d42611d3d611d3884611c28565b611d1d565b611c28565b9050919050565b6000611d5482611d27565b9050919050565b6000611d6682611d49565b9050919050565b611d7681611d5b565b82525050565b6000602082019050611d916000830184611d6d565b92915050565b600080600060608486031215611db057611daf611a4e565b5b6000611dbe86828701611c9b565b9350506020611dcf86828701611c9b565b9250506040611de086828701611be6565b9150509250925092565b600080fd5b600080fd5b600080fd5b60008083601f840112611e0f57611e0e611dea565b5b8235905067ffffffffffffffff811115611e2c57611e2b611def565b5b602083019150836001820283011115611e4857611e47611df4565b5b9250929050565b60008060008060608587031215611e6957611e68611a4e565b5b6000611e7787828801611c9b565b945050602085013567ffffffffffffffff811115611e9857611e97611a53565b5b611ea487828801611df9565b93509350506040611eb787828801611be6565b91505092959194509250565b60008083601f840112611ed957611ed8611dea565b5b8235905067ffffffffffffffff811115611ef657611ef5611def565b5b602083019150836001820283011115611f1257611f11611df4565b5b9250929050565b60008060008060608587031215611f3357611f32611a4e565b5b6000611f4187828801611c9b565b945050602085013567ffffffffffffffff811115611f6257611f61611a53565b5b611f6e87828801611ec3565b93509350506040611f8187828801611be6565b91505092959194509250565b611f9681611bc5565b82525050565b6000602082019050611fb16000830184611f8d565b92915050565b611fc081611add565b8114611fcb57600080fd5b50565b600081359050611fdd81611fb7565b92915050565b60008060408385031215611ffa57611ff9611a4e565b5b600061200885828601611c9b565b925050602061201985828601611fce565b9150509250929050565b600080fd5b7f4e487b7100000000000000000000000000000000000000000000000000000000600052604160045260246000fd5b61206082611b59565b810181811067ffffffffffffffff8211171561207f5761207e612028565b5b80604052505050565b6000612092611a44565b905061209e8282612057565b919050565b600067ffffffffffffffff8211156120be576120bd612028565b5b6120c782611b59565b9050602081019050919050565b82818337600083830152505050565b60006120f66120f1846120a3565b612088565b90508281526020810184848401111561211257612111612023565b5b61211d8482856120d4565b509392505050565b600082601f83011261213a57612139611dea565b5b813561214a8482602086016120e3565b91505092915050565b6000806000806080858703121561216d5761216c611a4e565b5b600061217b87828801611c9b565b945050602061218c87828801611c9b565b935050604061219d87828801611be6565b925050606085013567ffffffffffffffff8111156121be576121bd611a53565b5b6121ca87828801612125565b91505092959194509250565b600080604083850312156121ed576121ec611a4e565b5b60006121fb85828601611c9b565b925050602061220c85828601611c9b565b9150509250929050565b7f4e487b7100000000000000000000000000000000000000000000000000000000600052602260045260246000fd5b6000600282049050600182168061225d57607f821691505b6020821081036122705761226f612216565b5b50919050565b600060608201905061228b6000830186611c5a565b6122986020830185611f8d565b6122a56040830184611c5a565b949350505050565b600082825260208201905092915050565b60006122ca83856122ad565b93506122d78385846120d4565b6122e083611b59565b840190509392505050565b600060208201905081810360008301526123068184866122be565b90509392505050565b60008151905061231e81611fb7565b92915050565b60006020828403121561233a57612339611a4e565b5b60006123488482850161230f565b91505092915050565b600061235d8385611b1e565b935061236a8385846120d4565b61237383611b59565b840190509392505050565b60006020820190508181036000830152612399818486612351565b90509392505050565b600081905092915050565b7f7b00000000000000000000000000000000000000000000000000000000000000600082015250565b60006123e36001836123a2565b91506123ee826123ad565b600182019050919050565b7f226e616d65223a20220000000000000000000000000000000000000000000000600082015250565b600061242f6009836123a2565b915061243a826123f9565b600982019050919050565b600061245082611b13565b61245a81856123a2565b935061246a818560208601611b2f565b80840191505092915050565b7f222c000000000000000000000000000000000000000000000000000000000000600082015250565b60006124ac6002836123a2565b91506124b782612476565b600282019050919050565b7f226465736372697074696f6e223a202200000000000000000000000000000000600082015250565b60006124f86010836123a2565b9150612503826124c2565b601082019050919050565b60008190508160005260206000209050919050565b6000815461253081612245565b61253a81866123a2565b94506001821660008114612555576001811461256a5761259d565b60ff198316865281151582028601935061259d565b6125738561250e565b60005b8381101561259557815481890152600182019150602081019050612576565b838801955050505b50505092915050565b7f2261747472696275746573223a205b5d2c000000000000000000000000000000600082015250565b60006125dc6011836123a2565b91506125e7826125a6565b601182019050919050565b7f22696d616765223a202200000000000000000000000000000000000000000000600082015250565b6000612628600a836123a2565b9150612633826125f2565b600a82019050919050565b7f227d000000000000000000000000000000000000000000000000000000000000600082015250565b60006126746002836123a2565b915061267f8261263e565b600282019050919050565b6000612695826123d6565b91506126a082612422565b91506126ac8286612445565b91506126b78261249f565b91506126c2826124eb565b91506126ce8285612523565b91506126d98261249f565b91506126e4826125cf565b91506126ef8261261b565b91506126fb8284612523565b915061270682612667565b9150819050949350505050565b7f646174613a6170706c69636174696f6e2f6a736f6e3b6261736536342c000000600082015250565b6000612749601d836123a2565b915061275482612713565b601d82019050919050565b600061276a8261273c565b91506127768284612445565b915081905092915050565b7f4e487b7100000000000000000000000000000000000000000000000000000000600052601160045260246000fd5b60006127bb82611bc5565b91507fffffffffffffffffffffffffffffffffffffffffffffffffffffffffffffffff82036127ed576127ec612781565b5b600182019050919050565b600081519050919050565b600061280e826127f8565b61281881856122ad565b9350612828818560208601611b2f565b61283181611b59565b840191505092915050565b60006080820190506128516000830187611c5a565b61285e6020830186611c5a565b61286b6040830185611f8d565b818103606083015261287d8184612803565b905095945050505050565b60008151905061289781611a84565b92915050565b6000602082840312156128b3576128b2611a4e565b5b60006128c184828501612888565b91505092915050565b60006128d582611bc5565b91506128e083611bc5565b92508282019050808211156128f8576128f7612781565b5b92915050565b7f4e487b7100000000000000000000000000000000000000000000000000000000600052601260045260246000fd5b600061293882611bc5565b915061294383611bc5565b925082612953576129526128fe565b5b828204905092915050565b600061296982611bc5565b915061297483611bc5565b925082820261298281611bc5565b9150828204841483151761299957612998612781565b5b5092915050565b60006040820190506129b56000830185611c5a565b6129c26020830184611f8d565b939250505056fe4142434445464748494a4b4c4d4e4f505152535455565758595a6162636465666768696a6b6c6d6e6f707172737475767778797a303132333435363738392b2fa2646970667358221220e6cab5434c89fd466b541cd748d72246f29a04dc42a585bd533ca9e6eba07aec64736f6c63430008180033",
  "linkReferences": {},
  "deployedLinkReferences": {}
}