{
  "_format": "hh-sol-artifact-1",
  "contractName": "BasicOnChainNft",
  "sourceName": "contracts/BasicOnChainNft.sol",
  "abi": [
    {
      "inputs": [
        {
          "internalType": "string",
          "name": "_name",
          "type": "string"
        },
        {
          "internalType": "string",
          "name": "_symbol",
          "type": "string"
        }
      ],
      "stateMutability": "nonpayable",
      "type": "constructor"
    },
    {
      "inputs": [
        {
          "internalType": "address",
          "name": "sender",
          "type": "address"
        },
        {
          "internalType": "uint256",
          "name": "tokenId",
          "type": "uint256"
        },
        {
          "internalType": "address",
          "name": "owner",
          "type": "address"
        }
      ],
      "name": "ERC721IncorrectOwner",
      "type": "error"
    },
    {
      "inputs": [
        {
          "internalType": "address",
          "name": "operator",
          "type": "address"
        },
        {
          "internalType": "uint256",
          "name": "tokenId",
          "type": "uint256"
        }
      ],
      "name": "ERC721InsufficientApproval",
      "type": "error"
    },
    {
      "inputs": [
        {
          "internalType": "address",
          "name": "approver",
          "type": "address"
        }
      ],
      "name": "ERC721InvalidApprover",
      "type": "error"
    },
    {
      "inputs": [
        {
          "internalType": "address",
          "name": "operator",
          "type": "address"
        }
      ],
      "name": "ERC721InvalidOperator",
      "type": "error"
    },
    {
      "inputs": [
        {
          "internalType": "address",
          "name": "owner",
          "type": "address"
        }
      ],
      "name": "ERC721InvalidOwner",
      "type": "error"
    },
    {
      "inputs": [
        {
          "internalType": "address",
          "name": "receiver",
          "type": "address"
        }
      ],
      "name": "ERC721InvalidReceiver",
      "type": "error"
    },
    {
      "inputs": [
        {
          "internalType": "address",
          "name": "sender",
          "type": "address"
        }
      ],
      "name": "ERC721InvalidSender",
      "type": "error"
    },
    {
      "inputs": [
        {
          "internalType": "uint256",
          "name": "tokenId",
          "type": "uint256"
        }
      ],
      "name": "ERC721NonexistentToken",
      "type": "error"
    },
    {
      "anonymous": false,
      "inputs": [
        {
          "indexed": true,
          "internalType": "address",
          "name": "owner",
          "type": "address"
        },
        {
          "indexed": true,
          "internalType": "address",
          "name": "approved",
          "type": "address"
        },
        {
          "indexed": true,
          "internalType": "uint256",
          "name": "tokenId",
          "type": "uint256"
        }
      ],
      "name": "Approval",
      "type": "event"
    },
    {
      "anonymous": false,
      "inputs": [
        {
          "indexed": true,
          "internalType": "address",
          "name": "owner",
          "type": "address"
        },
        {
          "indexed": true,
          "internalType": "address",
          "name": "operator",
          "type": "address"
        },
        {
          "indexed": false,
          "internalType": "bool",
          "name": "approved",
          "type": "bool"
        }
      ],
      "name": "ApprovalForAll",
      "type": "event"
    },
    {
      "anonymous": false,
      "inputs": [
        {
          "indexed": true,
          "internalType": "address",
          "name": "from",
          "type": "address"
        },
        {
          "indexed": true,
          "internalType": "address",
          "name": "to",
          "type": "address"
        },
        {
          "indexed": true,
          "internalType": "uint256",
          "name": "tokenId",
          "type": "uint256"
        }
      ],
      "name": "Transfer",
      "type": "event"
    },
    {
      "inputs": [
        {
          "internalType": "address",
          "name": "to",
          "type": "address"
        },
        {
          "internalType": "uint256",
          "name": "tokenId",
          "type": "uint256"
        }
      ],
      "name": "approve",
      "outputs": [],
      "stateMutability": "nonpayable",
      "type": "function"
    },
    {
      "inputs": [
        {
          "internalType": "address",
          "name": "owner",
          "type": "address"
        }
      ],
      "name": "balanceOf",
      "outputs": [
        {
          "internalType": "uint256",
          "name": "",
          "type": "uint256"
        }
      ],
      "stateMutability": "view",
      "type": "function"
    },
    {
      "inputs": [
        {
          "internalType": "uint256",
          "name": "tokenId",
          "type": "uint256"
        }
      ],
      "name": "getApproved",
      "outputs": [
        {
          "internalType": "address",
          "name": "",
          "type": "address"
        }
      ],
      "stateMutability": "view",
      "type": "function"
    },
    {
      "inputs": [],
      "name": "getTokenCounter",
      "outputs": [
        {
          "internalType": "uint256",
          "name": "",
          "type": "uint256"
        }
      ],
      "stateMutability": "view",
      "type": "function"
    },
    {
      "inputs": [
        {
          "internalType": "address",
          "name": "owner",
          "type": "address"
        },
        {
          "internalType": "address",
          "name": "operator",
          "type": "address"
        }
      ],
      "name": "isApprovedForAll",
      "outputs": [
        {
          "internalType": "bool",
          "name": "",
          "type": "bool"
        }
      ],
      "stateMutability": "view",
      "type": "function"
    },
    {
      "inputs": [
        {
          "internalType": "string",
          "name": "_imageUri",
          "type": "string"
        },
        {
          "internalType": "string",
          "name": "_description",
          "type": "string"
        }
      ],
      "name": "mintNft",
      "outputs": [],
      "stateMutability": "nonpayable",
      "type": "function"
    },
    {
      "inputs": [],
      "name": "name",
      "outputs": [
        {
          "internalType": "string",
          "name": "",
          "type": "string"
        }
      ],
      "stateMutability": "view",
      "type": "function"
    },
    {
      "inputs": [
        {
          "internalType": "uint256",
          "name": "tokenId",
          "type": "uint256"
        }
      ],
      "name": "ownerOf",
      "outputs": [
        {
          "internalType": "address",
          "name": "",
          "type": "address"
        }
      ],
      "stateMutability": "view",
      "type": "function"
    },
    {
      "inputs": [
        {
          "internalType": "address",
          "name": "from",
          "type": "address"
        },
        {
          "internalType": "address",
          "name": "to",
          "type": "address"
        },
        {
          "internalType": "uint256",
          "name": "tokenId",
          "type": "uint256"
        }
      ],
      "name": "safeTransferFrom",
      "outputs": [],
      "stateMutability": "nonpayable",
      "type": "function"
    },
    {
      "inputs": [
        {
          "internalType": "address",
          "name": "from",
          "type": "address"
        },
        {
          "internalType": "address",
          "name": "to",
          "type": "address"
        },
        {
          "internalType": "uint256",
          "name": "tokenId",
          "type": "uint256"
        },
        {
          "internalType": "bytes",
          "name": "data",
          "type": "bytes"
        }
      ],
      "name": "safeTransferFrom",
      "outputs": [],
      "stateMutability": "nonpayable",
      "type": "function"
    },
    {
      "inputs": [
        {
          "internalType": "address",
          "name": "operator",
          "type": "address"
        },
        {
          "internalType": "bool",
          "name": "approved",
          "type": "bool"
        }
      ],
      "name": "setApprovalForAll",
      "outputs": [],
      "stateMutability": "nonpayable",
      "type": "function"
    },
    {
      "inputs": [
        {
          "internalType": "bytes4",
          "name": "interfaceId",
          "type": "bytes4"
        }
      ],
      "name": "supportsInterface",
      "outputs": [
        {
          "internalType": "bool",
          "name": "",
          "type": "bool"
        }
      ],
      "stateMutability": "view",
      "type": "function"
    },
    {
      "inputs": [],
      "name": "symbol",
      "outputs": [
        {
          "internalType": "string",
          "name": "",
          "type": "string"
        }
      ],
      "stateMutability": "view",
      "type": "function"
    },
    {
      "inputs": [
        {
          "internalType": "uint256",
          "name": "tokenId",
          "type": "uint256"
        }
      ],
      "name": "tokenURI",
      "outputs": [
        {
          "internalType": "string",
          "name": "",
          "type": "string"
        }
      ],
      "stateMutability": "view",
      "type": "function"
    },
    {
      "inputs": [
        {
          "internalType": "address",
          "name": "from",
          "type": "address"
        },
        {
          "internalType": "address",
          "name": "to",
          "type": "address"
        },
        {
          "internalType": "uint256",
          "name": "tokenId",
          "type": "uint256"
        }
      ],
      "name": "transferFrom",
      "outputs": [],
      "stateMutability": "nonpayable",
      "type": "function"
    }
  ],
  "bytecode": "0x60806040523480156200001157600080fd5b5060405162002d0c38038062002d0c833981810160405281019062000037919062000202565b818181600090816200004a9190620004d2565b5080600190816200005c9190620004d2565b50505060006007819055505050620005b9565b6000604051905090565b600080fd5b600080fd5b600080fd5b600080fd5b6000601f19601f8301169050919050565b7f4e487b7100000000000000000000000000000000000000000000000000000000600052604160045260246000fd5b620000d8826200008d565b810181811067ffffffffffffffff82111715620000fa57620000f96200009e565b5b80604052505050565b60006200010f6200006f565b90506200011d8282620000cd565b919050565b600067ffffffffffffffff82111562000140576200013f6200009e565b5b6200014b826200008d565b9050602081019050919050565b60005b83811015620001785780820151818401526020810190506200015b565b60008484015250505050565b60006200019b620001958462000122565b62000103565b905082815260208101848484011115620001ba57620001b962000088565b5b620001c784828562000158565b509392505050565b600082601f830112620001e757620001e662000083565b5b8151620001f984826020860162000184565b91505092915050565b600080604083850312156200021c576200021b62000079565b5b600083015167ffffffffffffffff8111156200023d576200023c6200007e565b5b6200024b85828601620001cf565b925050602083015167ffffffffffffffff8111156200026f576200026e6200007e565b5b6200027d85828601620001cf565b9150509250929050565b600081519050919050565b7f4e487b7100000000000000000000000000000000000000000000000000000000600052602260045260246000fd5b60006002820490506001821680620002da57607f821691505b602082108103620002f057620002ef62000292565b5b50919050565b60008190508160005260206000209050919050565b60006020601f8301049050919050565b600082821b905092915050565b6000600883026200035a7fffffffffffffffffffffffffffffffffffffffffffffffffffffffffffffffff826200031b565b6200036686836200031b565b95508019841693508086168417925050509392505050565b6000819050919050565b6000819050919050565b6000620003b3620003ad620003a7846200037e565b62000388565b6200037e565b9050919050565b6000819050919050565b620003cf8362000392565b620003e7620003de82620003ba565b84845462000328565b825550505050565b600090565b620003fe620003ef565b6200040b818484620003c4565b505050565b5b81811015620004335762000427600082620003f4565b60018101905062000411565b5050565b601f82111562000482576200044c81620002f6565b62000457846200030b565b8101602085101562000467578190505b6200047f62000476856200030b565b83018262000410565b50505b505050565b600082821c905092915050565b6000620004a76000198460080262000487565b1980831691505092915050565b6000620004c2838362000494565b9150826002028217905092915050565b620004dd8262000287565b67ffffffffffffffff811115620004f957620004f86200009e565b5b620005058254620002c1565b6200051282828562000437565b600060209050601f8311600181146200054a576000841562000535578287015190505b620005418582620004b4565b865550620005b1565b601f1984166200055a86620002f6565b60005b8281101562000584578489015182556001820191506020850194506020810190506200055d565b86831015620005a45784890151620005a0601f89168262000494565b8355505b6001600288020188555050505b505050505050565b61274380620005c96000396000f3fe608060405234801561001057600080fd5b50600436106100f55760003560e01c80636352211e11610097578063a22cb46511610066578063a22cb46514610284578063b88d4fde146102a0578063c87b56dd146102bc578063e985e9c5146102ec576100f5565b80636352211e146101e85780636e02007d1461021857806370a082311461023657806395d89b4114610266576100f5565b8063095ea7b3116100d3578063095ea7b31461017857806323b872dd1461019457806342842e0e146101b0578063475a54ba146101cc576100f5565b806301ffc9a7146100fa57806306fdde031461012a578063081812fc14610148575b600080fd5b610114600480360381019061010f91906117e9565b61031c565b6040516101219190611831565b60405180910390f35b6101326103fe565b60405161013f91906118dc565b60405180910390f35b610162600480360381019061015d9190611934565b610490565b60405161016f91906119a2565b60405180910390f35b610192600480360381019061018d91906119e9565b6104ac565b005b6101ae60048036038101906101a99190611a29565b6104c2565b005b6101ca60048036038101906101c59190611a29565b6105c4565b005b6101e660048036038101906101e19190611ae1565b6105e4565b005b61020260048036038101906101fd9190611934565b6106ef565b60405161020f91906119a2565b60405180910390f35b610220610701565b60405161022d9190611b71565b60405180910390f35b610250600480360381019061024b9190611b8c565b61070b565b60405161025d9190611b71565b60405180910390f35b61026e6107c5565b60405161027b91906118dc565b60405180910390f35b61029e60048036038101906102999190611be5565b610857565b005b6102ba60048036038101906102b59190611d55565b61086d565b005b6102d660048036038101906102d19190611934565b61088a565b6040516102e391906118dc565b60405180910390f35b61030660048036038101906103019190611dd8565b610a34565b6040516103139190611831565b60405180910390f35b60007f80ac58cd000000000000000000000000000000000000000000000000000000007bffffffffffffffffffffffffffffffffffffffffffffffffffffffff1916827bffffffffffffffffffffffffffffffffffffffffffffffffffffffff191614806103e757507f5b5e139f000000000000000000000000000000000000000000000000000000007bffffffffffffffffffffffffffffffffffffffffffffffffffffffff1916827bffffffffffffffffffffffffffffffffffffffffffffffffffffffff1916145b806103f757506103f682610ac8565b5b9050919050565b60606000805461040d90611e47565b80601f016020809104026020016040519081016040528092919081815260200182805461043990611e47565b80156104865780601f1061045b57610100808354040283529160200191610486565b820191906000526020600020905b81548152906001019060200180831161046957829003601f168201915b5050505050905090565b600061049b82610b32565b506104a582610bba565b9050919050565b6104be82826104b9610bf7565b610bff565b5050565b600073ffffffffffffffffffffffffffffffffffffffff168273ffffffffffffffffffffffffffffffffffffffff16036105345760006040517f64a0ae9200000000000000000000000000000000000000000000000000000000815260040161052b91906119a2565b60405180910390fd5b60006105488383610543610bf7565b610c11565b90508373ffffffffffffffffffffffffffffffffffffffff168173ffffffffffffffffffffffffffffffffffffffff16146105be578382826040517f64283d7b0000000000000000000000000000000000000000000000000000000081526004016105b593929190611e78565b60405180910390fd5b50505050565b6105df8383836040518060200160405280600081525061086d565b505050565b604051806040016040528085858080601f016020809104026020016040519081016040528093929190818152602001838380828437600081840152601f19601f82011690508083019250505050505050815260200183838080601f016020809104026020016040519081016040528093929190818152602001838380828437600081840152601f19601f8201169050808301925050505050505081525060066000600754815260200190815260200160002060008201518160000190816106ab919061205b565b5060208201518160010190816106c1919061205b565b509050506106d133600754610e2b565b600760008154809291906106e49061215c565b919050555050505050565b60006106fa82610b32565b9050919050565b6000600754905090565b60008073ffffffffffffffffffffffffffffffffffffffff168273ffffffffffffffffffffffffffffffffffffffff160361077e5760006040517f89c62b6400000000000000000000000000000000000000000000000000000000815260040161077591906119a2565b60405180910390fd5b600360008373ffffffffffffffffffffffffffffffffffffffff1673ffffffffffffffffffffffffffffffffffffffff168152602001908152602001600020549050919050565b6060600180546107d490611e47565b80601f016020809104026020016040519081016040528092919081815260200182805461080090611e47565b801561084d5780601f106108225761010080835404028352916020019161084d565b820191906000526020600020905b81548152906001019060200180831161083057829003601f168201915b5050505050905090565b610869610862610bf7565b8383610e49565b5050565b6108788484846104c2565b61088484848484610fb8565b50505050565b60606000600660008481526020019081526020016000206040518060400160405290816000820180546108bc90611e47565b80601f01602080910402602001604051908101604052809291908181526020018280546108e890611e47565b80156109355780601f1061090a57610100808354040283529160200191610935565b820191906000526020600020905b81548152906001019060200180831161091857829003601f168201915b5050505050815260200160018201805461094e90611e47565b80601f016020809104026020016040519081016040528092919081815260200182805461097a90611e47565b80156109c75780601f1061099c576101008083540402835291602001916109c7565b820191906000526020600020905b8154815290600101906020018083116109aa57829003601f168201915b5050505050815250509050610a0d6109dd6103fe565b826020015183600001516040516020016109f9939291906123f4565b60405160208183030381529060405261116f565b604051602001610a1d91906124c9565b604051602081830303815290604052915050919050565b6000600560008473ffffffffffffffffffffffffffffffffffffffff1673ffffffffffffffffffffffffffffffffffffffff16815260200190815260200160002060008373ffffffffffffffffffffffffffffffffffffffff1673ffffffffffffffffffffffffffffffffffffffff16815260200190815260200160002060009054906101000a900460ff16905092915050565b60007f01ffc9a7000000000000000000000000000000000000000000000000000000007bffffffffffffffffffffffffffffffffffffffffffffffffffffffff1916827bffffffffffffffffffffffffffffffffffffffffffffffffffffffff1916149050919050565b600080610b3e836112e1565b9050600073ffffffffffffffffffffffffffffffffffffffff168173ffffffffffffffffffffffffffffffffffffffff1603610bb157826040517f7e273289000000000000000000000000000000000000000000000000000000008152600401610ba89190611b71565b60405180910390fd5b80915050919050565b60006004600083815260200190815260200160002060009054906101000a900473ffffffffffffffffffffffffffffffffffffffff169050919050565b600033905090565b610c0c838383600161131e565b505050565b600080610c1d846112e1565b9050600073ffffffffffffffffffffffffffffffffffffffff168373ffffffffffffffffffffffffffffffffffffffff1614610c5f57610c5e8184866114e3565b5b600073ffffffffffffffffffffffffffffffffffffffff168173ffffffffffffffffffffffffffffffffffffffff1614610cf057610ca160008560008061131e565b6001600360008373ffffffffffffffffffffffffffffffffffffffff1673ffffffffffffffffffffffffffffffffffffffff168152602001908152602001600020600082825403925050819055505b600073ffffffffffffffffffffffffffffffffffffffff168573ffffffffffffffffffffffffffffffffffffffff1614610d73576001600360008773ffffffffffffffffffffffffffffffffffffffff1673ffffffffffffffffffffffffffffffffffffffff168152602001908152602001600020600082825401925050819055505b846002600086815260200190815260200160002060006101000a81548173ffffffffffffffffffffffffffffffffffffffff021916908373ffffffffffffffffffffffffffffffffffffffff160217905550838573ffffffffffffffffffffffffffffffffffffffff168273ffffffffffffffffffffffffffffffffffffffff167fddf252ad1be2c89b69c2b068fc378daa952ba7f163c4a11628f55a4df523b3ef60405160405180910390a4809150509392505050565b610e458282604051806020016040528060008152506115a7565b5050565b600073ffffffffffffffffffffffffffffffffffffffff168273ffffffffffffffffffffffffffffffffffffffff1603610eba57816040517f5b08ba18000000000000000000000000000000000000000000000000000000008152600401610eb191906119a2565b60405180910390fd5b80600560008573ffffffffffffffffffffffffffffffffffffffff1673ffffffffffffffffffffffffffffffffffffffff16815260200190815260200160002060008473ffffffffffffffffffffffffffffffffffffffff1673ffffffffffffffffffffffffffffffffffffffff16815260200190815260200160002060006101000a81548160ff0219169083151502179055508173ffffffffffffffffffffffffffffffffffffffff168373ffffffffffffffffffffffffffffffffffffffff167f17307eab39ab6107e8899845ad3d59bd9653f200f220920489ca2b5937696c3183604051610fab9190611831565b60405180910390a3505050565b60008373ffffffffffffffffffffffffffffffffffffffff163b1115611169578273ffffffffffffffffffffffffffffffffffffffff1663150b7a02610ffc610bf7565b8685856040518563ffffffff1660e01b815260040161101e9493929190612540565b6020604051808303816000875af192505050801561105a57506040513d601f19601f8201168201806040525081019061105791906125a1565b60015b6110de573d806000811461108a576040519150601f19603f3d011682016040523d82523d6000602084013e61108f565b606091505b5060008151036110d657836040517f64a0ae920000000000000000000000000000000000000000000000000000000081526004016110cd91906119a2565b60405180910390fd5b805181602001fd5b63150b7a0260e01b7bffffffffffffffffffffffffffffffffffffffffffffffffffffffff1916817bffffffffffffffffffffffffffffffffffffffffffffffffffffffff19161461116757836040517f64a0ae9200000000000000000000000000000000000000000000000000000000815260040161115e91906119a2565b60405180910390fd5b505b50505050565b60606000825103611191576040518060200160405280600081525090506112dc565b60006040518060600160405280604081526020016126ce60409139905060006003600285516111c091906125ce565b6111ca9190612631565b60046111d69190612662565b67ffffffffffffffff8111156111ef576111ee611c2a565b5b6040519080825280601f01601f1916602001820160405280156112215781602001600182028036833780820191505090505b50905060018201602082018586518701602081018051600082525b82841015611297576003840193508351603f8160121c168701518653600186019550603f81600c1c168701518653600186019550603f8160061c168701518653600186019550603f811687015186536001860195505061123c565b80825260038a5106600181146112b457600281146112c7576112cf565b603d6001870353603d60028703536112cf565b603d60018703535b5050505050505080925050505b919050565b60006002600083815260200190815260200160002060009054906101000a900473ffffffffffffffffffffffffffffffffffffffff169050919050565b80806113575750600073ffffffffffffffffffffffffffffffffffffffff168273ffffffffffffffffffffffffffffffffffffffff1614155b1561148b57600061136784610b32565b9050600073ffffffffffffffffffffffffffffffffffffffff168373ffffffffffffffffffffffffffffffffffffffff16141580156113d257508273ffffffffffffffffffffffffffffffffffffffff168173ffffffffffffffffffffffffffffffffffffffff1614155b80156113e557506113e38184610a34565b155b1561142757826040517fa9fbf51f00000000000000000000000000000000000000000000000000000000815260040161141e91906119a2565b60405180910390fd5b811561148957838573ffffffffffffffffffffffffffffffffffffffff168273ffffffffffffffffffffffffffffffffffffffff167f8c5be1e5ebec7d5bd14f71427d1e84f3dd0314c0f7b2291e5b200ac8c7c3b92560405160405180910390a45b505b836004600085815260200190815260200160002060006101000a81548173ffffffffffffffffffffffffffffffffffffffff021916908373ffffffffffffffffffffffffffffffffffffffff16021790555050505050565b6114ee8383836115c3565b6115a257600073ffffffffffffffffffffffffffffffffffffffff168373ffffffffffffffffffffffffffffffffffffffff160361156357806040517f7e27328900000000000000000000000000000000000000000000000000000000815260040161155a9190611b71565b60405180910390fd5b81816040517f177e802f0000000000000000000000000000000000000000000000000000000081526004016115999291906126a4565b60405180910390fd5b505050565b6115b18383611684565b6115be6000848484610fb8565b505050565b60008073ffffffffffffffffffffffffffffffffffffffff168373ffffffffffffffffffffffffffffffffffffffff161415801561167b57508273ffffffffffffffffffffffffffffffffffffffff168473ffffffffffffffffffffffffffffffffffffffff16148061163c575061163b8484610a34565b5b8061167a57508273ffffffffffffffffffffffffffffffffffffffff1661166283610bba565b73ffffffffffffffffffffffffffffffffffffffff16145b5b90509392505050565b600073ffffffffffffffffffffffffffffffffffffffff168273ffffffffffffffffffffffffffffffffffffffff16036116f65760006040517f64a0ae920000000000000000000000000000000000000000000000000000000081526004016116ed91906119a2565b60405180910390fd5b600061170483836000610c11565b9050600073ffffffffffffffffffffffffffffffffffffffff168173ffffffffffffffffffffffffffffffffffffffff16146117785760006040517f73c6ac6e00000000000000000000000000000000000000000000000000000000815260040161176f91906119a2565b60405180910390fd5b505050565b6000604051905090565b600080fd5b600080fd5b60007fffffffff0000000000000000000000000000000000000000000000000000000082169050919050565b6117c681611791565b81146117d157600080fd5b50565b6000813590506117e3816117bd565b92915050565b6000602082840312156117ff576117fe611787565b5b600061180d848285016117d4565b91505092915050565b60008115159050919050565b61182b81611816565b82525050565b60006020820190506118466000830184611822565b92915050565b600081519050919050565b600082825260208201905092915050565b60005b8381101561188657808201518184015260208101905061186b565b60008484015250505050565b6000601f19601f8301169050919050565b60006118ae8261184c565b6118b88185611857565b93506118c8818560208601611868565b6118d181611892565b840191505092915050565b600060208201905081810360008301526118f681846118a3565b905092915050565b6000819050919050565b611911816118fe565b811461191c57600080fd5b50565b60008135905061192e81611908565b92915050565b60006020828403121561194a57611949611787565b5b60006119588482850161191f565b91505092915050565b600073ffffffffffffffffffffffffffffffffffffffff82169050919050565b600061198c82611961565b9050919050565b61199c81611981565b82525050565b60006020820190506119b76000830184611993565b92915050565b6119c681611981565b81146119d157600080fd5b50565b6000813590506119e3816119bd565b92915050565b60008060408385031215611a00576119ff611787565b5b6000611a0e858286016119d4565b9250506020611a1f8582860161191f565b9150509250929050565b600080600060608486031215611a4257611a41611787565b5b6000611a50868287016119d4565b9350506020611a61868287016119d4565b9250506040611a728682870161191f565b9150509250925092565b600080fd5b600080fd5b600080fd5b60008083601f840112611aa157611aa0611a7c565b5b8235905067ffffffffffffffff811115611abe57611abd611a81565b5b602083019150836001820283011115611ada57611ad9611a86565b5b9250929050565b60008060008060408587031215611afb57611afa611787565b5b600085013567ffffffffffffffff811115611b1957611b1861178c565b5b611b2587828801611a8b565b9450945050602085013567ffffffffffffffff811115611b4857611b4761178c565b5b611b5487828801611a8b565b925092505092959194509250565b611b6b816118fe565b82525050565b6000602082019050611b866000830184611b62565b92915050565b600060208284031215611ba257611ba1611787565b5b6000611bb0848285016119d4565b91505092915050565b611bc281611816565b8114611bcd57600080fd5b50565b600081359050611bdf81611bb9565b92915050565b60008060408385031215611bfc57611bfb611787565b5b6000611c0a858286016119d4565b9250506020611c1b85828601611bd0565b9150509250929050565b600080fd5b7f4e487b7100000000000000000000000000000000000000000000000000000000600052604160045260246000fd5b611c6282611892565b810181811067ffffffffffffffff82111715611c8157611c80611c2a565b5b80604052505050565b6000611c9461177d565b9050611ca08282611c59565b919050565b600067ffffffffffffffff821115611cc057611cbf611c2a565b5b611cc982611892565b9050602081019050919050565b82818337600083830152505050565b6000611cf8611cf384611ca5565b611c8a565b905082815260208101848484011115611d1457611d13611c25565b5b611d1f848285611cd6565b509392505050565b600082601f830112611d3c57611d3b611a7c565b5b8135611d4c848260208601611ce5565b91505092915050565b60008060008060808587031215611d6f57611d6e611787565b5b6000611d7d878288016119d4565b9450506020611d8e878288016119d4565b9350506040611d9f8782880161191f565b925050606085013567ffffffffffffffff811115611dc057611dbf61178c565b5b611dcc87828801611d27565b91505092959194509250565b60008060408385031215611def57611dee611787565b5b6000611dfd858286016119d4565b9250506020611e0e858286016119d4565b9150509250929050565b7f4e487b7100000000000000000000000000000000000000000000000000000000600052602260045260246000fd5b60006002820490506001821680611e5f57607f821691505b602082108103611e7257611e71611e18565b5b50919050565b6000606082019050611e8d6000830186611993565b611e9a6020830185611b62565b611ea76040830184611993565b949350505050565b60008190508160005260206000209050919050565b60006020601f8301049050919050565b600082821b905092915050565b600060088302611f117fffffffffffffffffffffffffffffffffffffffffffffffffffffffffffffffff82611ed4565b611f1b8683611ed4565b95508019841693508086168417925050509392505050565b6000819050919050565b6000611f58611f53611f4e846118fe565b611f33565b6118fe565b9050919050565b6000819050919050565b611f7283611f3d565b611f86611f7e82611f5f565b848454611ee1565b825550505050565b600090565b611f9b611f8e565b611fa6818484611f69565b505050565b5b81811015611fca57611fbf600082611f93565b600181019050611fac565b5050565b601f82111561200f57611fe081611eaf565b611fe984611ec4565b81016020851015611ff8578190505b61200c61200485611ec4565b830182611fab565b50505b505050565b600082821c905092915050565b600061203260001984600802612014565b1980831691505092915050565b600061204b8383612021565b9150826002028217905092915050565b6120648261184c565b67ffffffffffffffff81111561207d5761207c611c2a565b5b6120878254611e47565b612092828285611fce565b600060209050601f8311600181146120c557600084156120b3578287015190505b6120bd858261203f565b865550612125565b601f1984166120d386611eaf565b60005b828110156120fb578489015182556001820191506020850194506020810190506120d6565b868310156121185784890151612114601f891682612021565b8355505b6001600288020188555050505b505050505050565b7f4e487b7100000000000000000000000000000000000000000000000000000000600052601160045260246000fd5b6000612167826118fe565b91507fffffffffffffffffffffffffffffffffffffffffffffffffffffffffffffffff82036121995761219861212d565b5b600182019050919050565b600081905092915050565b7f7b00000000000000000000000000000000000000000000000000000000000000600082015250565b60006121e56001836121a4565b91506121f0826121af565b600182019050919050565b7f226e616d65223a20220000000000000000000000000000000000000000000000600082015250565b60006122316009836121a4565b915061223c826121fb565b600982019050919050565b60006122528261184c565b61225c81856121a4565b935061226c818560208601611868565b80840191505092915050565b7f222c000000000000000000000000000000000000000000000000000000000000600082015250565b60006122ae6002836121a4565b91506122b982612278565b600282019050919050565b7f226465736372697074696f6e223a202200000000000000000000000000000000600082015250565b60006122fa6010836121a4565b9150612305826122c4565b601082019050919050565b7f2261747472696275746573223a205b5d2c000000000000000000000000000000600082015250565b60006123466011836121a4565b915061235182612310565b601182019050919050565b7f22696d616765223a202200000000000000000000000000000000000000000000600082015250565b6000612392600a836121a4565b915061239d8261235c565b600a82019050919050565b7f227d000000000000000000000000000000000000000000000000000000000000600082015250565b60006123de6002836121a4565b91506123e9826123a8565b600282019050919050565b60006123ff826121d8565b915061240a82612224565b91506124168286612247565b9150612421826122a1565b915061242c826122ed565b91506124388285612247565b9150612443826122a1565b915061244e82612339565b915061245982612385565b91506124658284612247565b9150612470826123d1565b9150819050949350505050565b7f646174613a6170706c69636174696f6e2f6a736f6e3b6261736536342c000000600082015250565b60006124b3601d836121a4565b91506124be8261247d565b601d82019050919050565b60006124d4826124a6565b91506124e08284612247565b915081905092915050565b600081519050919050565b600082825260208201905092915050565b6000612512826124eb565b61251c81856124f6565b935061252c818560208601611868565b61253581611892565b840191505092915050565b60006080820190506125556000830187611993565b6125626020830186611993565b61256f6040830185611b62565b81810360608301526125818184612507565b905095945050505050565b60008151905061259b816117bd565b92915050565b6000602082840312156125b7576125b6611787565b5b60006125c58482850161258c565b91505092915050565b60006125d9826118fe565b91506125e4836118fe565b92508282019050808211156125fc576125fb61212d565b5b92915050565b7f4e487b7100000000000000000000000000000000000000000000000000000000600052601260045260246000fd5b600061263c826118fe565b9150612647836118fe565b92508261265757612656612602565b5b828204905092915050565b600061266d826118fe565b9150612678836118fe565b9250828202612686816118fe565b9150828204841483151761269d5761269c61212d565b5b5092915050565b60006040820190506126b96000830185611993565b6126c66020830184611b62565b939250505056fe4142434445464748494a4b4c4d4e4f505152535455565758595a6162636465666768696a6b6c6d6e6f707172737475767778797a303132333435363738392b2fa2646970667358221220c5e5a116f134f55036872821554c88a2686b0fce661f607c97fc56f1728489c564736f6c63430008180033",
  "linkReferences": {},
  "deployedLinkReferences": {}
}