{
  "_format": "hh-sol-artifact-1",
  "contractName": "CommitAndReveal",
  "sourceName": "contracts/CommitReveal.sol",
  "abi": [
    {
      "inputs": [
        {
          "internalType": "string",
          "name": "_question",
          "type": "string"
        }
      ],
      "stateMutability": "nonpayable",
      "type": "constructor"
    },
    {
      "inputs": [
        {
          "internalType": "string",
          "name": "_userInput",
          "type": "string"
        }
      ],
      "name": "checkSecret",
      "outputs": [
        {
          "internalType": "bool",
          "name": "",
          "type": "bool"
        }
      ],
      "stateMutability": "view",
      "type": "function"
    },
    {
      "inputs": [
        {
          "internalType": "bytes",
          "name": "_secretAnswerHash",
          "type": "bytes"
        }
      ],
      "name": "checkSecretByHash",
      "outputs": [
        {
          "internalType": "bool",
          "name": "",
          "type": "bool"
        }
      ],
      "stateMutability": "view",
      "type": "function"
    },
    {
      "inputs": [],
      "name": "decodeQuestion",
      "outputs": [
        {
          "internalType": "string",
          "name": "",
          "type": "string"
        }
      ],
      "stateMutability": "view",
      "type": "function"
    },
    {
      "inputs": [
        {
          "internalType": "string",
          "name": "_input",
          "type": "string"
        }
      ],
      "name": "hashInput",
      "outputs": [
        {
          "internalType": "bytes",
          "name": "",
          "type": "bytes"
        }
      ],
      "stateMutability": "pure",
      "type": "function"
    },
    {
      "inputs": [],
      "name": "hashOfQuestionAndSecretAnswer",
      "outputs": [
        {
          "internalType": "bytes32",
          "name": "",
          "type": "bytes32"
        }
      ],
      "stateMutability": "view",
      "type": "function"
    },
    {
      "inputs": [
        {
          "internalType": "string",
          "name": "_question",
          "type": "string"
        },
        {
          "internalType": "string",
          "name": "_answer",
          "type": "string"
        }
      ],
      "name": "qAhash",
      "outputs": [
        {
          "internalType": "bytes32",
          "name": "",
          "type": "bytes32"
        }
      ],
      "stateMutability": "pure",
      "type": "function"
    },
    {
      "inputs": [],
      "name": "question",
      "outputs": [
        {
          "internalType": "bytes",
          "name": "",
          "type": "bytes"
        }
      ],
      "stateMutability": "view",
      "type": "function"
    }
  ],
  "bytecode": "0x60806040527f3de33a73c66afd29d5dd3fb34535ef6827096595a74c7c898a6d0f239b59805a60001b6001553480156200003857600080fd5b5060405162000ff438038062000ff483398181016040528101906200005e91906200022b565b80604051602001620000719190620002c9565b604051602081830303815290604052600090816200009091906200052d565b505062000614565b6000604051905090565b600080fd5b600080fd5b600080fd5b600080fd5b6000601f19601f8301169050919050565b7f4e487b7100000000000000000000000000000000000000000000000000000000600052604160045260246000fd5b6200010182620000b6565b810181811067ffffffffffffffff82111715620001235762000122620000c7565b5b80604052505050565b60006200013862000098565b9050620001468282620000f6565b919050565b600067ffffffffffffffff821115620001695762000168620000c7565b5b6200017482620000b6565b9050602081019050919050565b60005b83811015620001a157808201518184015260208101905062000184565b60008484015250505050565b6000620001c4620001be846200014b565b6200012c565b905082815260208101848484011115620001e357620001e2620000b1565b5b620001f084828562000181565b509392505050565b600082601f83011262000210576200020f620000ac565b5b815162000222848260208601620001ad565b91505092915050565b600060208284031215620002445762000243620000a2565b5b600082015167ffffffffffffffff811115620002655762000264620000a7565b5b6200027384828501620001f8565b91505092915050565b600081519050919050565b600081905092915050565b60006200029f826200027c565b620002ab818562000287565b9350620002bd81856020860162000181565b80840191505092915050565b6000620002d7828462000292565b915081905092915050565b600081519050919050565b7f4e487b7100000000000000000000000000000000000000000000000000000000600052602260045260246000fd5b600060028204905060018216806200033557607f821691505b6020821081036200034b576200034a620002ed565b5b50919050565b60008190508160005260206000209050919050565b60006020601f8301049050919050565b600082821b905092915050565b600060088302620003b57fffffffffffffffffffffffffffffffffffffffffffffffffffffffffffffffff8262000376565b620003c1868362000376565b95508019841693508086168417925050509392505050565b6000819050919050565b6000819050919050565b60006200040e620004086200040284620003d9565b620003e3565b620003d9565b9050919050565b6000819050919050565b6200042a83620003ed565b62000442620004398262000415565b84845462000383565b825550505050565b600090565b620004596200044a565b620004668184846200041f565b505050565b5b818110156200048e57620004826000826200044f565b6001810190506200046c565b5050565b601f821115620004dd57620004a78162000351565b620004b28462000366565b81016020851015620004c2578190505b620004da620004d18562000366565b8301826200046b565b50505b505050565b600082821c905092915050565b60006200050260001984600802620004e2565b1980831691505092915050565b60006200051d8383620004ef565b9150826002028217905092915050565b6200053882620002e2565b67ffffffffffffffff811115620005545762000553620000c7565b5b6200056082546200031c565b6200056d82828562000492565b600060209050601f831160018114620005a5576000841562000590578287015190505b6200059c85826200050f565b8655506200060c565b601f198416620005b58662000351565b60005b82811015620005df57848901518255600182019150602085019450602081019050620005b8565b86831015620005ff5784890151620005fb601f891682620004ef565b8355505b6001600288020188555050505b505050505050565b6109d080620006246000396000f3fe608060405234801561001057600080fd5b506004361061007d5760003560e01c806360ea95f11161005b57806360ea95f1146100ee57806365e6e5461461011e5780636d37eb111461013c578063a2d5df591461016c5761007d565b80632f568e13146100825780633fad9ae0146100b25780634e1dcdd5146100d0575b600080fd5b61009c60048036038101906100979190610477565b61019c565b6040516100a99190610511565b60405180910390f35b6100ba61021e565b6040516100c791906105bc565b60405180910390f35b6100d86102ac565b6040516100e59190610633565b60405180910390f35b61010860048036038101906101039190610655565b61033e565b60405161011591906106bd565b60405180910390f35b61012661039c565b6040516101339190610511565b60405180910390f35b61015660048036038101906101519190610655565b6103a2565b60405161016391906105bc565b60405180910390f35b6101866004803603810190610181919061072e565b6103ce565b60405161019391906106bd565b60405180910390f35b60008085856040516020016101b29291906107ba565b6040516020818303038152906040529050600084846040516020016101d89291906107ba565b604051602081830303815290604052905081816040516020016101fc92919061080f565b6040516020818303038152906040528051906020012092505050949350505050565b6000805461022b90610862565b80601f016020809104026020016040519081016040528092919081815260200182805461025790610862565b80156102a45780601f10610279576101008083540402835291602001916102a4565b820191906000526020600020905b81548152906001019060200180831161028757829003601f168201915b505050505081565b6060600080546102bb90610862565b80601f01602080910402602001604051908101604052809291908181526020018280546102e790610862565b80156103345780601f1061030957610100808354040283529160200191610334565b820191906000526020600020905b81548152906001019060200180831161031757829003601f168201915b5050505050905090565b60008083836040516020016103549291906107ba565b604051602081830303815290604052905060015460008260405160200161037c92919061092b565b604051602081830303815290604052805190602001201491505092915050565b60015481565b606082826040516020016103b79291906107ba565b604051602081830303815290604052905092915050565b6000600154600084846040516020016103e993929190610974565b6040516020818303038152906040528051906020012014905092915050565b600080fd5b600080fd5b600080fd5b600080fd5b600080fd5b60008083601f84011261043757610436610412565b5b8235905067ffffffffffffffff81111561045457610453610417565b5b6020830191508360018202830111156104705761046f61041c565b5b9250929050565b6000806000806040858703121561049157610490610408565b5b600085013567ffffffffffffffff8111156104af576104ae61040d565b5b6104bb87828801610421565b9450945050602085013567ffffffffffffffff8111156104de576104dd61040d565b5b6104ea87828801610421565b925092505092959194509250565b6000819050919050565b61050b816104f8565b82525050565b60006020820190506105266000830184610502565b92915050565b600081519050919050565b600082825260208201905092915050565b60005b8381101561056657808201518184015260208101905061054b565b60008484015250505050565b6000601f19601f8301169050919050565b600061058e8261052c565b6105988185610537565b93506105a8818560208601610548565b6105b181610572565b840191505092915050565b600060208201905081810360008301526105d68184610583565b905092915050565b600081519050919050565b600082825260208201905092915050565b6000610605826105de565b61060f81856105e9565b935061061f818560208601610548565b61062881610572565b840191505092915050565b6000602082019050818103600083015261064d81846105fa565b905092915050565b6000806020838503121561066c5761066b610408565b5b600083013567ffffffffffffffff81111561068a5761068961040d565b5b61069685828601610421565b92509250509250929050565b60008115159050919050565b6106b7816106a2565b82525050565b60006020820190506106d260008301846106ae565b92915050565b60008083601f8401126106ee576106ed610412565b5b8235905067ffffffffffffffff81111561070b5761070a610417565b5b6020830191508360018202830111156107275761072661041c565b5b9250929050565b6000806020838503121561074557610744610408565b5b600083013567ffffffffffffffff8111156107635761076261040d565b5b61076f858286016106d8565b92509250509250929050565b600081905092915050565b82818337600083830152505050565b60006107a1838561077b565b93506107ae838584610786565b82840190509392505050565b60006107c7828486610795565b91508190509392505050565b600081905092915050565b60006107e98261052c565b6107f381856107d3565b9350610803818560208601610548565b80840191505092915050565b600061081b82856107de565b915061082782846107de565b91508190509392505050565b7f4e487b7100000000000000000000000000000000000000000000000000000000600052602260045260246000fd5b6000600282049050600182168061087a57607f821691505b60208210810361088d5761088c610833565b5b50919050565b60008190508160005260206000209050919050565b600081546108b581610862565b6108bf81866107d3565b945060018216600081146108da57600181146108ef57610922565b60ff1983168652811515820286019350610922565b6108f885610893565b60005b8381101561091a578154818901526001820191506020810190506108fb565b838801955050505b50505092915050565b600061093782856108a8565b915061094382846107de565b91508190509392505050565b600061095b83856107d3565b9350610968838584610786565b82840190509392505050565b600061098082866108a8565b915061098d82848661094f565b915081905094935050505056fea26469706673582212200840dc7739f441b86cfeba332710105d64a869d902cdd9a5e06271e52ed8746e64736f6c63430008180033",
  "linkReferences": {},
  "deployedLinkReferences": {}
}